:1000000004308A00E62C00000A108A100A118207C8
:1000100028340C34013406340C00D61E0001C91EED
:100020000001603084008313000803192528013083
:10003000F800F701F70B1A28F80B19284A30F700D7
:10004000F70B20282328800B17280800670EF039AB
:10005000F7000F30080577048800000008143028E6
:10006000081008000808F700080E0F39F80008000B
:1000700088100F3083160805F038880083120815A1
:1000800000000814000032207808E7000810000083
:100090000814000032207808E60008100F3083169C
:1000A000080588008312670EF700F030F70577081F
:1000B0006604F8007808E600E61B3928641C8810FE
:1000C000641888140000081100000810650EE6008E
:1000D0000F30E6056608E700262065080F39E600C0
:1000E000E700262008000F30831608058800081056
:1000F0008810081183128810081108100F30E000D2
:1001000011200130D2005208033C031C8F28033019
:10011000E70026200530E0001120D20A83280230B3
:10012000E7002620D2015208033C031CA0285208F5
:100130000420D300E4015308E5003820D20A9328B4
:100140008A110A123F2D610BA628A9284030E2002F
:10015000AA28E20101306002E20762088038E30069
:10016000E4016308E500382008005F080C3A031931
:10017000C028063A0319C828023A0319CE28D32802
:10018000E4010130E50038200230E0001120D928D8
:100190000130E0000230E100A320D928E401103052
:1001A000E5003820D9280130E4005F08E500382058
:1001B000D9280800831603178C170C1400000000C0
:1001C00083120C087F3903191E290313D200031769
:1001D0000D080313D30003170F080313D4005208AC
:1001E000DF00B520530803178D00031354080317CD
:1001F0008F0083168C170C140000000083120C0D66
:100200000E0D7F3903191E290313D20003170D08A1
:100210000313D30003170F080313D4005208DF00A1
:10022000B520530803178D000313540803178F00DC
:100230008D0A03198F0A0313DA2803170313080022
:100240008E30F7005308F8005208F900FA01F80858
:10025000031D34297908F800F9010830F702F8087D
:10026000031D3429F7013C290310F81B3B29F90D24
:10027000F80DF7033429F81308005F080319AD29B6
:10028000E70063080319AD29E70703184E297F30FB
:10029000E702031CAD290319AD2952298130E70774
:1002A0000318AD296708F700F801F901FA016008A1
:1002B000EB00EB176108EA006208E9001830E7007C
:1002C000E801691C7B296608FA07031C6D29F90AF5
:1002D000031D6D29F80A0319E8176508F907031CBF
:1002E0007429F80A0319E8176408E100E1176108A6
:1002F000F8070318E817E80DF80CF90CFA0CEB0CEA
:10030000EA0CE90C0310E70B60290130F70703182A
:10031000AD29F81B9229EB0DFA0DF90DF80DF70335
:100320000319AD29EB1FA329FA0A031DA329F90A12
:10033000031DA329F80A031DA329F80CF90CFA0CD4
:10034000F70A0319AD296008E8006408E806E81F09
:10035000AB29F817B129F813B129F701F801F90110
:10036000FA01080056080319772AE2005A0803190F
:10037000772AE202031CC1297F30E2070318772A9B
:10038000C7298130E202031C772A0319772A620801
:10039000F700F801F901FA01E1015708E000E01760
:1003A0005808DF005908DE001930E2005D08DE025F
:1003B0000318EA290130DF020318EA29E0020318D2
:1003C000EA29E1020318EA29E10AE00ADF0A5D08E6
:1003D000DE071C2A5C08DF020318052A0130E00250
:1003E0000318052AE1020318052AE10AE00A5C085D
:1003F000DF075D08DE07031C1C2ADF0A031D1C2A19
:10040000E00A031D1C2AE10A1C2A5B088038E0026E
:1004100003181B2A0130E10203181B2AE10A5B08BA
:100420008038E0075C08DF07031CF929E00A031D98
:10043000F929E10AF9297A14E20B1F2A2A2A031062
:10044000DE0DDF0DE00DE10D0310FA0DF90DF80DD5
:10045000E30DD629631C322A0310F80CF90CFA0CB0
:10046000E30C352AF7030319772AE31B5E2A0310EE
:10047000DE0DDF0DE00DE10D5D08DE0203184A2AF6
:100480000130DF0203184A2AE00203184A2AE10277
:10049000031C6D2A5C08DF020318552A0130E002B4
:1004A0000318552AE102031C6D2A5B088038E0021C
:1004B00003185E2A0130E102031C6D2AFA0A031DAB
:1004C0006D2AF90A031D6D2AF80A031D6D2AF70A21
:1004D0000319772AF80CF90CFA0C5708E2005B08AC
:1004E000E206E21F752AF8177B2AF8137B2AF70128
:1004F000F801F901FA010800F701F801F901FA0120
:10050000E701E801E901EA0166086504640463049F
:100510000319BA2A2030EB000310DF0DE00DE10DC6
:10052000E20DE70DE80DE90DEA0D66086A02031D0C
:10053000A32A65086902031DA32A64086802031D33
:10054000A32A63086702031CB42A6308E70264084D
:10055000031C640FE8026508031C650FE9026608C6
:10056000031C660FEA020314F70DF80DF90DFA0DDE
:10057000EB0B8C2A67308400831308000408D70033
:100580005608D9000319DD2A5508E2005408E10095
:100590005308E0005208DF00E601E5012030E400E6
:1005A0008230E3003D217A08D5007908D40078082C
:1005B000D3007708D200D90BC42A5508E2005408AA
:1005C000E1005308E0005208DF005F08B63CDF009E
:1005D000FA016008E300E0170310E00CE10CE20C04
:1005E000FA0CF90CF80CF70CDF0BEC2AE31F032BC9
:1005F000F709F809F909FA09F70A0319F80A0319BA
:10060000F90A0319FA0A7A08D5007908D40078089B
:10061000D3007708D200D51F1A2BD703D716D209DB
:10062000D309D409D509D20A0319D30A0319D40A64
:100630000319D50A3B30DE009A30DD00CA30DC00F9
:10064000DB010A30D90056080319D70A5508E20021
:100650005408E1005308E0005208DF005E08E6009D
:100660005D08E5005C08E4005B08E3007C2200080C
:10067000D200840A0008D300840A0008D400840A47
:100680000008D500FD308407F708031D5A2B560AD1
:10069000590203195A2B570803195C2B0F395902B9
:1006A0000319542B03188C2BD71B8C2B571B5C2B3B
:1006B0002030882B2030D705D71E6A2BD71256083A
:1006C000031DD7037708D7002D30DF00B52057086A
:1006D000F700D70156085902031D782B7708D70079
:1006E0002E30DF00B5205708F7002030D705003046
:1006F0003030D71E882BD7125608031DD703770832
:10070000D7002D30DF00B5205708F700D701303073
:10071000F7077708DF00B5205E08E2005D08E1001A
:100720005C08E0005B08DF00E601E501E4010A3057
:10073000E3007C227A08DE007908DD007808DC001E
:100740007708DB00D90B262B080080308318DB06E6
:10075000E001E1015708DF005B08DF0656080319D6
:10076000952CDE00F7005A0803199E2CDE020319AF
:100770003A2C031CF82B5B08E400E4175C08E30048
:100780005D08E200E1010310E40CE30CE20CE10C73
:10079000DE0BC22BDF1FCF2B6014B22C60105E105B
:1007A0006016593084008313C72C6012DF1BE22BC4
:1007B0005E1CED2BE40CE30CE20CE10CF70A0319D0
:1007C000AD2CED2BE41BF02B0310E10DE20DE30D3E
:1007D000E40DF7030319AD2CE22B60175A2C6013BC
:1007E0005708DF00DF1FF62BE417A62CE413A62C16
:1007F0005A08DE00F7005608DE025708E400E41746
:100800005808E3005908E200E1010310E40CE30C8E
:10081000E20CE10CDE0B042CDF1F112CE014B22CD7
:10082000E0105E10E0165D3084008313C72CE012E8
:10083000DF1B242C5E1C2F2CE40CE30CE20CE10CDF
:10084000F70A0319AD2C2F2CE41B322C0310E10DF9
:10085000E20DE30DE40DF7030319AD2C242CE01792
:100860005A2CE0135B08DF00DF1F382CE417A62C9E
:10087000E413A62C5B08E400E4175C08E3005D08C1
:10088000E200DF1F472CE4136015B22C6011E10178
:100890005E10593084008313C72CDF1B702C57085F
:1008A000DF005E1C5A2CE40CE30CE20CE10CF70AAE
:1008B0000319AD2CE11F6B2CE20A031D6B2CE30A1C
:1008C000031D6B2CE40A031D6B2CE40CE30CE20CFF
:1008D000F70A0319AD2C601BEF2BE01B312C8F2C7A
:1008E0008030E406E41F782CB22C5B08DF00852CF6
:1008F0005708DF00E408031D852CE308031D852C41
:10090000E208031D852CF701A62CE41B8F2C031095
:10091000E10DE20DE30DE40DF70B852CAD2CDF1F8F
:10092000932CE417A62CE413A62C5A08F7005B08B6
:10093000E4005C08E3005D08E200A62C5608F7001E
:100940005708E4005808E3005908E2006408F8007A
:100950006308F9006208FA00E52CF701F801F901D3
:10096000FA01E52CE101E209E309E409E109E10A00
:10097000031DC02CE20A031DC02CE30A0319E40A7C
:100980006018CE2BE018102C6019462C752C00082E
:10099000E207031CD12CE30A031DD12CE40A03193E
:1009A0005E1484030008E307031CD92CE40A03192E
:1009B0005E1484030008801F803AE40703185E1465
:1009C000601AD52BE01A172C4D2C080084018313D4
:1009D0001F308305C101C001BF01BE01C501C401B3
:1009E000C301C201C901C8012030C7008130C6005F
:1009F000CD30CD00CC30CC004C30CB007B30CA00A9
:100A0000E201E101E0017E30DF004908E60048082C
:100A1000E5004708E4004608E3003D217A08D100DC
:100A20007908D0007808CF007708CE008316031726
:100A30000908C039890003131F129F1200300317E1
:100A4000880083128701880189010330831603130C
:100A500085000030880003170908C0391F38890055
:100A600003131F129F12FF30031788008312031312
:100A70001F179F1783169F1783121F1473280C309C
:100A800003178D0000308F000313DA200030F800C8
:100A90001F08C33978049F009F149F184D2D83169B
:100AA0001E088312A0001E08A1002108D300200800
:100AB000D20020217A08E2007908E1007808E000FD
:100AC0007708DF00E601E5012030E4008130E30033
:100AD0003D217708D2007808D3007908D4007A083D
:100AE000D500E2007908E1007808E0007708DF002F
:100AF000E601E5012830E4008430E3003D21770879
:100B0000D2007808D3007908D4007A08D500D9003B
:100B10007908D8007808D7007708D600DD01C03002
:100B2000DC007F30DB008830DA00B2217A08A500D3
:100B30007908A4007808A3007708A2000130E0003B
:100B4000E100A3200D3003178D0000308F00031348
:100B5000DA200330E0000130E100A3208930840076
:100B60002508D5002408D4002308D3002208D20089
:100B70000230D600BE220430F8001F08C3397804C2
:100B80009F009F149F18C22D1E08FA0083161E088E
:100B90008312D2001E08D30020217A08A900790808
:100BA000A8007808A7007708A6000A30E2002830DD
:100BB000E1002030E0007730DF002908E600280857
:100BC000E5002708E4002608E3003D217A08C50077
:100BD0007908C4007808C3007708C2008314450868
:100BE000D9004408D8004308D7004208D60051086D
:100BF000DD005008DC004F08DB004E08DA00A523BA
:100C00007708D2007808D3007908D4007A08D50094
:100C100083107A08D9007908D8007808D7007708B7
:100C2000D600A630DD009B30DC004430DB0078309D
:100C3000DA00A5237A08C1007908C0007808BF004F
:100C40007708BE004108D9004008D8003F08D70007
:100C50003E08D6004D08DD004C08DC004B08DB00E8
:100C60004A08DA00B2217A08AD007908AC007808A9
:100C7000AB007708AA000130E0000230E100A320B9
:100C80000F3003178D0000308F000313DA2003307C
:100C9000E0000230E100A320893084002D08D50057
:100CA0002C08D4002B08D3002A08D2000230D6002A
:060CB000BE22462D630088
:04400E00F12CFF3F53
:00000001FF
;PIC16F887
;CRC=9693  CREATED="10-Aug-20 20:34"
