:1000000002308A00A32A00008E30F7005308F8005F
:100010005208F900FA01F808031D18287908F800B9
:10002000F9010830F702F808031D1828F701202805
:100030000310F81B1F28F90DF80DF7031828F81303
:100040000800520803199128DA005608031991286C
:10005000DA07031832287F30DA02031C91280319CB
:10006000912836288130DA07031891285A08F700BA
:10007000F801F901FA015308DE00DE175408DD002B
:100080005508DC001830DA00DB015C1C5F285908D9
:10009000FA07031C5128F90A031D5128F80A03190D
:1000A000DB175808F907031C5828F80A0319DB174F
:1000B0005708D400D4175408F8070318DB17DB0DD2
:1000C000F80CF90CFA0CDE0CDD0CDC0C0310DA0B6E
:1000D00044280130F70703189128F81B7628DE0D15
:1000E000FA0DF90DF80DF70303199128DE1F872883
:1000F000FA0A031D8728F90A031D8728F80A031D39
:100100008728F80CF90CFA0CF70A03199128530800
:10011000DB005708DB06DB1F8F28F8179528F8133C
:100120009528F701F801F901FA01080080308318D9
:10013000DB06E001E1015708DF005B08DF06560837
:1001400003198629DE00F7005A0803198F29DE02F9
:1001500003192B29031CE9285B08E400E4175C0859
:10016000E3005D08E200E1010310E40CE30CE20CA3
:10017000E10CDE0BB328DF1FC0286014A329601038
:100180005E106016593084008313B8296012DF1B9B
:10019000D3285E1CDE28E40CE30CE20CE10CF70A29
:1001A00003199E29DE28E41BE1280310E10DE20D6E
:1001B000E30DE40DF70303199E29D32860174B299B
:1001C00060135708DF00DF1FE728E4179729E413BF
:1001D00097295A08DE00F7005608DE025708E400A7
:1001E000E4175808E3005908E200E1010310E40CA9
:1001F000E30CE20CE10CDE0BF528DF1F0229E01412
:10020000A329E0105E10E0165D3084008313B82946
:10021000E012DF1B15295E1C2029E40CE30CE20C24
:10022000E10CF70A03199E292029E41B2329031056
:10023000E10DE20DE30DE40DF70303199E291529E5
:10024000E0174B29E0135B08DF00DF1F2929E417C3
:100250009729E41397295B08E400E4175C08E3009E
:100260005D08E200DF1F3829E4136015A32960113F
:10027000E1015E10593084008313B829DF1B612926
:100280005708DF005E1C4B29E40CE30CE20CE10C88
:10029000F70A03199E29E11F5C29E20A031D5C2964
:1002A000E30A031D5C29E40A031D5C29E40CE30C4A
:1002B000E20CF70A03199E29601BE028E01B2229A3
:1002C00080298030E406E41F6929A3295B08DF0048
:1002D00076295708DF00E408031D7629E308031D8B
:1002E0007629E208031D7629F7019729E41B802966
:1002F0000310E10DE20DE30DE40DF70B76299E29C5
:10030000DF1F8429E4179729E41397295A08F70077
:100310005B08E4005C08E3005D08E20097295608EA
:10032000F7005708E4005808E3005908E2006408A1
:10033000F8006308F9006208FA00D629F701F8010D
:10034000F901FA01D629E101E209E309E409E10929
:10035000E10A031DB129E20A031DB129E30A0319C9
:10036000E40A6018BF28E0180129601937296629B6
:100370000008E207031CC229E30A031DC229E40A9C
:1003800003195E1484030008E307031CCA29E40A66
:1003900003195E1484030008801F803AE4070318E1
:1003A0005E14601AC628E01A08293E29080052087F
:1003B00003199C2ADE00560803199C2ADE02031C3E
:1003C000E6297F30DE0703189C2AEC298130DE0203
:1003D000031C9C2A03199C2A5E08F700F801F90106
:1003E000FA01DD015308DC00DC175408DB00550876
:1003F000DA001930DE005908DA0203180F2A01303A
:10040000DB0203180F2ADC0203180F2ADD0203188F
:100410000F2ADD0ADC0ADB0A5908DA07412A5808E4
:10042000DB0203182A2A0130DC0203182A2ADD0223
:1004300003182A2ADD0ADC0A5808DB075908DA07FC
:10044000031C412ADB0A031D412ADC0A031D412A41
:10045000DD0A412A57088038DC020318402A01309F
:10046000DD020318402ADD0A57088038DC075808E7
:10047000DB07031C1E2ADC0A031D1E2ADD0A1E2AB6
:100480007A14DE0B442A4F2A0310DA0DDB0DDC0D43
:10049000DD0D0310FA0DF90DF80DDF0DFB295F1CC2
:1004A000572A0310F80CF90CFA0CDF0C5A2AF70340
:1004B00003199C2ADF1B832A0310DA0DDB0DDC0DE8
:1004C000DD0D5908DA0203186F2A0130DB02031828
:1004D0006F2ADC0203186F2ADD02031C922A5808D7
:1004E000DB0203187A2A0130DC0203187A2ADD02C3
:1004F000031C922A57088038DC020318832A013033
:10050000DD02031C922AFA0A031D922AF90A031D2E
:10051000922AF80A031D922AF70A03199C2AF80C5A
:10052000F90CFA0C5308DE005708DE06DE1F9A2A83
:10053000F817A02AF813A02AF701F801F901FA0127
:100540008A110A12A22B840183131F308305C10173
:10055000C001BF01BE01C501C401C301C201C9017F
:10056000C8012030C7008130C600CD30CD00CC306E
:10057000CC004C30CB007B30CA00D501D401D30174
:100580007E30D2004908D9004808D8004708D70073
:100590004608D60021207A08D1007908D0007808D2
:1005A000CF007708CE00831603170908C0398900E9
:1005B00003131F129F120030031788008312870154
:1005C00088018901FE3083160313860003308500FD
:1005D0000030880003170908C0391F388900031349
:1005E0001F129F12FF3003178800831203131F1777
:1005F0009F1783169F1783121F1406140030F800EC
:100600001F08C33978049F009F149F18052B831679
:100610001E088312A0001E08A1002108D300200894
:10062000D20004207A08D5007908D4007808D300D5
:100630007708D200D901D8012030D7008130D60008
:1006400021207A08A5007908A4007808A30077087B
:10065000A20006100430F8001F08C33978049F0078
:100660009F149F18312B1E08FA0083161E08831250
:10067000D2001E08D30004207A08A9007908A80037
:100680007808A7007708A6000A30D5002830D400E3
:100690002030D3007730D2002908D9002808D800AC
:1006A0002708D7002608D60021207A08C500790837
:1006B000C4007808C3007708C20083144508D90035
:1006C0004408D8004308D7004208D6005108DD008E
:1006D0005008DC004F08DB004E08DA00962077084F
:1006E000D2007808D3007908D4007A08D5008310A6
:1006F0007A08D9007908D8007808D7007708D6009A
:10070000A630DD009B30DC004430DB007830DA00BE
:1007100096207A08C1007908C0007808BF007708E1
:10072000BE004108D5004008D4003F08D3003E0871
:10073000D2004D08D9004C08D8004B08D7004A0811
:10074000D600D7297A08AD007908AC007808AB004C
:080750007708AA00FD2A6300EE
:04400E00F12CFF3F53
:00000001FF
;PIC16F887
;CRC=ED92  CREATED="10-Aug-20 21:39"
