:1000000008308A00002800000A108A100A118207AE
:1000100028340C34013406340C005638F61E2533CF
:1000200000004938F61E25330001503BF01E2533F1
:100030000001623084008313000803192D28013069
:10004000F800F701F70B2228F80B21284A30F700B7
:10005000F70B28282B28800B1F280800690EF03981
:10006000F7000F30080577048800000008143828CE
:10007000081008000808F700080E0F39F8000800FB
:1000800088100F3083160805F03888008312081591
:100090000000081400003A207808E9000810000069
:1000A000081400003A207808E80008100F30831682
:1000B000080588008312690EF700F030F70577080D
:1000C0006804F8007808E800E81B4128661C8810DE
:1000D000661888140000081100000810670EE80078
:1000E0000F30E8056808E9002E2067080F39E8009E
:1000F000E9002E2008000F3083160805880008103C
:100100008810081183128810081108100F30E200BF
:1001100019200130D4005408033C031C97280330F5
:10012000E9002E200530E2001920D40A8B28023085
:10013000E9002E20D4015408033C031CA8285408CD
:100140000420D500E6015508E7004020D40A9B288A
:100150008A150A124A28630BAE28B1284030E40001
:10016000B228E40101306202E40764088038E50047
:10017000E6016508E7004020080061080C3A031911
:10018000C828063A0319D028023A0319D628DB28D2
:10019000E6010130E70040200230E2001920E128AA
:1001A0000130E2000230E300AB20E128E60110302C
:1001B000E7004020E1280130E6006108E700402028
:1001C000E1280800831603178C170C1400000000A8
:1001D00083120C087F39031926290313D40003174F
:1001E0000D080313D50003170F080313D600540896
:1001F000E100BD20550803178D00031356080317AF
:100200008F0083168C170C140000000083120C0D55
:100210000E0D7F39031926290313D40003170D0887
:100220000313D50003170F080313D6005408E10089
:10023000BD20550803178D000313560803178F00C0
:100240008D0A03198F0A0313E228031703138A1573
:100250000A1253288E30F7005508F8005408F900A8
:10026000FA01F808031D3E297908F800F901083061
:10027000F702F808031D3E29F70146290310F81B71
:100280004529F90DF80DF7033E29F8130800610818
:100290000319B729E90065080319B729E907031805
:1002A00058297F30E902031CB7290319B7295C29B3
:1002B0008130E9070318B7296908F700F801F90147
:1002C000FA016208ED00ED176308EC006408EB002A
:1002D0001830E900EA016B1C85296808FA07031C3D
:1002E0007729F90A031D7729F80A0319EA1767081D
:1002F000F907031C7E29F80A0319EA176608E300C8
:10030000E3176308F8070318EA17EA0DF80CF90C6D
:10031000FA0CED0CEC0CEB0C0310E90B6A29013024
:10032000F7070318B729F81B9C29ED0DFA0DF90DF5
:10033000F80DF7030319B729ED1FAD29FA0A031DBC
:10034000AD29F90A031DAD29F80A031DAD29F80CE2
:10035000F90CFA0CF70A0319B7296208EA006608D3
:10036000EA06EA1FB529F817BB29F813BB29F701DC
:10037000F801F901FA01080058080319812AE4007C
:100380005C080319812AE402031CCB297F30E407AF
:100390000318812AD1298130E402031C812A031920
:1003A000812A6408F700F801F901FA01E30159080C
:1003B000E200E2175A08E1005B08E0001930E400AF
:1003C0005F08E0020318F4290130E1020318F42960
:1003D000E2020318F429E3020318F429E30AE20A0B
:1003E000E10A5F08E007262A5E08E10203180F2AE7
:1003F0000130E20203180F2AE30203180F2AE30A6E
:10040000E20A5E08E1075F08E007031C262AE10A0A
:10041000031D262AE20A031D262AE30A262A5D086E
:100420008038E2020318252A0130E3020318252A46
:10043000E30A5D088038E2075E08E107031C032A2F
:10044000E20A031D032AE30A032A7A14E40B292A89
:10045000342A0310E00DE10DE20DE30D0310FA0D57
:10046000F90DF80DE50DE029651C3C2A0310F80C88
:10047000F90CFA0CE50C3F2AF7030319812AE51B56
:10048000682A0310E00DE10DE20DE30D5F08E002C4
:100490000318542A0130E1020318542AE202031817
:1004A000542AE302031C772A5E08E10203185F2A3C
:1004B0000130E20203185F2AE302031C772A5D0879
:1004C0008038E2020318682A0130E302031C772A0D
:1004D000FA0A031D772AF90A031D772AF80A031D71
:1004E000772AF70A0319812AF80CF90CFA0C590833
:1004F000E4005D08E406E41F7F2AF817852AF81354
:10050000852AF701F801F901FA010800831603179B
:100510008C170C14000000000318B52A83120C0875
:100520007F390313D50003170D080313D6000317F3
:100530000F080313D7005508E100BD205608031724
:100540008D000313570803178F0083168C170C14A4
:100550000000000083120313D40BAF2AB22A8316C3
:100560000317B52AD32A8316031783120C0D0E0D19
:100570007F390313D50003170D080313D6000317A3
:100580000F080313D7005508E100BD2056080317D4
:100590008D000313570803178F008D0A03198F0A64
:1005A0000313D40B862A0800F701F801F901FA01B8
:1005B000E901EA01EB01EC016808670466046504DF
:1005C0000319122B2030ED000310E10DE20DE30DB5
:1005D000E40DE90DEA0DEB0DEC0D68086C02031D4E
:1005E000FB2A67086B02031DFB2A66086A02031DCB
:1005F000FB2A65086902031C0C2B6508E9026608E2
:10060000031C660FEA026708031C670FEB02680809
:10061000031C680FEC020314F70DF80DF90DFA0D29
:10062000ED0BE42A69308400831308000408D90024
:100630005808DB000319352B5708E4005608E3007F
:100640005508E2005408E100E801E7012030E60027
:100650008230E50047217A08D7007908D60078086B
:10066000D5007708D400DB0B1C2B5708E400560894
:10067000E3005508E2005408E1006108B63CE100DF
:10068000FA016208E500E2170310E20CE30CE40C47
:10069000FA0CF90CF80CF70CE10B442BE51F5B2B63
:1006A000F709F809F909FA09F70A0319F80A031909
:1006B000F90A0319FA0A7A08D7007908D6007808E7
:1006C000D5007708D400D71F722BD903D916D409C7
:1006D000D509D609D709D40A0319D50A0319D60AA8
:1006E0000319D70A3B30E0009A30DF00CA30DE0041
:1006F000DD010A30DB0058080319D90A5708E40065
:100700005608E3005508E2005408E1006008E800DC
:100710005F08E7005E08E6005D08E500D4220008F7
:10072000D400840A0008D500840A0008D600840A90
:100730000008D700FD308407F708031DB22B580AC4
:100740005B020319B22B59080319B42B0F395B0252
:100750000319AC2B0318E42BD91BE42B591BB42B26
:100760002030E02B2030D905D91EC22BD9125808D1
:10077000031DD9037708D9002D30E100BD205908A9
:10078000F700D90158085B02031DD02B7708D90068
:100790002E30E100BD205908F7002030D905003087
:1007A0003030D91EE02BD9125808031DD903770821
:1007B000D9002D30E100BD205908F700D9013030B3
:1007C000F7077708E100BD206008E4005F08E30058
:1007D0005E08E2005D08E100E801E701E6010A3099
:1007E000E500D4227A08E0007908DF007808DE000E
:1007F0007708DD00DB0B7E2B080080308318DD06D8
:10080000E201E3015908E1005D08E1065808031917
:10081000ED2CE000F7005C080319F62CE002031948
:10082000922C031C502C5D08E600E6175E08E500DC
:100830005F08E400E3010310E60CE50CE40CE30CB4
:10084000E00B1A2CE11F272C62140A2D6210601095
:1008500062165B30840083131F2D6212E11B3A2C59
:10086000601C452CE60CE50CE40CE30CF70A0319BC
:10087000052D452CE61B482C0310E30DE40DE50D7A
:10088000E60DF7030319052D3A2C6217B22C6213FB
:100890005908E100E11F4E2CE617FE2CE613FE2C52
:1008A0005C08E000F7005808E0025908E600E61787
:1008B0005A08E5005B08E400E3010310E60CE50CD0
:1008C000E40CE30CE00B5C2CE11F692CE2140A2D14
:1008D000E2106010E2165F30840083131F2DE212D5
:1008E000E11B7C2C601C872CE60CE50CE40CE30C73
:1008F000F70A0319052D872CE61B8A2C0310E30D3C
:10090000E40DE50DE60DF7030319052D7C2CE21728
:10091000B22CE2135D08E100E11F902CE617FE2CDB
:10092000E613FE2C5D08E600E6175E08E5005F08AA
:10093000E400E11F9F2CE61362150A2D6211E3010A
:1009400060105B30840083131F2DE11BC82C5908F5
:10095000E100601CB22CE60CE50CE40CE30CF70A99
:100960000319052DE31FC32CE40A031DC32CE50A5C
:10097000031DC32CE60A031DC32CE60CE50CE40C96
:10098000F70A0319052D621B472CE21B892CE72C63
:100990008030E606E61FD02C0A2D5D08E100DD2C34
:1009A0005908E100E608031DDD2CE508031DDD2CD8
:1009B000E408031DDD2CF701FE2CE61BE72C0310D9
:1009C000E30DE40DE50DE60DF70BDD2C052DE11F24
:1009D000EB2CE617FE2CE613FE2C5C08F7005D08F6
:1009E000E6005E08E5005F08E400FE2C5808F7000A
:1009F0005908E6005A08E5005B08E4006608F800BC
:100A00006508F9006408FA003D2DF701F801F901C5
:100A1000FA013D2DE301E409E509E609E309E30AEA
:100A2000031D182DE40A031D182DE50A0319E60A13
:100A30006218262CE218682C62199E2CCD2C000816
:100A4000E407031C292DE50A031D292DE60A0319D5
:100A5000601484030008E507031C312DE60A03191E
:100A6000601484030008801F803AE60703186014AE
:0C0A7000621A2D2CE21A6F2CA52C080035
:10100000840183131F308305A701A601AB01AA0148
:10101000A901A801AF01AE01AD01AC01CD30B30013
:10102000CC30B2004C30B1007B30B000C301C20103
:10103000C701C601C501C401CB01CA01C901C8016C
:10104000831603170908C039890003131F129F1262
:1010500000300317880083128701880189010F304F
:101060008316031385000030880003170908C03970
:101070001F38890003131F129F12FF3003178800C7
:10108000831203131F179F1783169F1783121F14B2
:101090008A117B288A150C3003178D0000308F00D1
:1010A0008A110313E2288A150030F8001F08C3399B
:1010B00078049F009F149F185B2883161E088312D4
:1010C000A0001E08A1002108D5002008D4008A1124
:1010D0002A218A157A08E4007908E3007808E200FA
:1010E0007708E100E801E7012030E6008130E50003
:1010F0008A1147218A157708D4007808D500790825
:10110000D6007A08D700E4005608E3005508E2004C
:101110005408E100E801E7012830E6008430E500EA
:101120008A1147218A157708D4007808D5007908F4
:10113000D6007A08D700DB005608DA005508D90037
:101140005408D800DF01C030DE007F30DD00883079
:10115000DC008A11BC218A157A08A5007908A40050
:101160007808A3007708A2000130E200E3008A11AA
:10117000AB208A150D3003178D0000308F0003104F
:1011800004300313D4008A1186228A158930840022
:101190002508D7002408D6002308D5002208D4004B
:1011A0000230D8008A1116238A150430F8001F086F
:1011B000C33978049F009F149F18DC2883161E08EB
:1011C0008312A6001E08A7002708D5002608D40011
:1011D0008A112A218A150A30E4002830E3002030E1
:1011E000E2007730E1007A08E8007908E700780843
:1011F000E6007708E5008A1147218A157A08BB00C6
:101200007908BA007808B9007708B80083143B0859
:10121000DB003A08DA003908D9003808D800DF01C5
:10122000DE012030DD008030DC008A11FD238A15CC
:101230007708D4007808D5007908D6007A08D70056
:1012400083105708DB005608DA005508D900540807
:10125000D800A630DF009B30DE004430DD0078305F
:10126000DC008A11FD238A157A08B7007908B600D8
:101270007808B5007708B4003708DB003608DA00D4
:101280003508D9003408D8003308DF003208DE0002
:101290003108DD003008DC008A11BC218A157A088B
:1012A000AB007908AA007808A9007708A8000C30DC
:1012B000E2000130E3008A11AB208A1511300317D8
:1012C0008D0000308F00031004300313D4008A1106
:1012D00086228A15893084002B08D7002A08D60078
:1012E0002908D5002808D4000230D8008A11162316
:1012F0008A152B08E4002A08E3002908E2002808E0
:10130000E1002508E8002408E7002308E600220899
:10131000E5008A1147218A157A08AF007908AE00E6
:101320007808AD007708AC000630E2000230E30038
:101330008A11AB208A15153003178D0000308F00FD
:10134000031004300313D4008A1186228A158930D1
:1013500084002F08D7002E08D6002D08D5002C08B1
:10136000D4000230D8008A1116238A150830F800FC
:101370001F08C33978049F009F149F18BD29831646
:101380001E088312BC001E08BD003D08D5003C08A5
:10139000D4008A112A218A157A08E4007908E3002A
:1013A0007808E2007708E100E801E7012030E60074
:1013B0008130E5008A1147218A157708D400780822
:1013C000D5007908D6007A08D700E4005608E30073
:1013D0005508E2005408E100E801E7014830E60062
:1013E0008530E5008A1147218A157708D4007808EE
:1013F000D5007908D6007A08D700DB005608DA0055
:101400005508D9005408D800DF01C030DE007F3015
:10141000DD008830DC008A11BC218A157A08C10001
:101420007908C0007808BF007708BE001530E200D8
:101430000130E3008A11AB208A155630E1008A1191
:10144000BD208A156C30E1008A11BD208A153D301F
:10145000E1008A11BD208A15893084004108D70037
:101460004008D6003F08D5003E08D4000230D8001E
:101470008A1116238A150C30F8001F08C339780426
:101480009F009F149F18422A83161E088312C200D1
:101490001E08C3004308D5004208D4008A112A213F
:1014A0008A150A30E4002830E3002030E20077306B
:1014B000E1007A08E8007908E7007808E600770894
:1014C000E5008A1147218A157A08D3007908D200ED
:1014D0007808D1007708D00083145308DB00520845
:1014E000DA005108D9005008D800DF01DE012030B1
:1014F000DD008030DC008A11FD238A157708D400D6
:101500007808D5007908D6007A08D70083105708E4
:10151000DB005608DA005508D9005408D800A63078
:10152000DF009B30DE004430DD007830DC008A11C3
:10153000FD238A157A08CF007908CE007808CD00FF
:101540007708CC004F08DB004E08DA004D08D900C0
:101550004C08D8003308DF003208DE003108DD0017
:101560003008DC008A11BC218A157A08C700790886
:10157000C6007808C5007708C4002030E2000130BA
:10158000E3008A11AB208A154930E1008A11BD20A1
:101590008A156C30E1008A11BD208A153D30E100CA
:1015A0008A11BD208A15893084004708D700460873
:1015B000D6004508D5004408D4000230D8008A116E
:1015C00016238A154708E4004608E3004508E200B0
:1015D0004408E1004108E8004008E7003F08E60051
:1015E0003E08E5008A1147218A157A08CB00790860
:1015F000CA007808C9007708C8001C30E200023031
:10160000E3008A11AB208A155030E1008A11BD2019
:101610008A156C30E1008A11BD208A153D30E10049
:101620008A11BD208A15893084004B08D7004A08EA
:10163000D6004908D5004808D4000230D8008A11E5
:0816400016238A1554286300EB
:04400E00F12CFF3F53
:00000001FF
;PIC16F887
;CRC=F619  CREATED="15-Aug-20 22:49"
