:100000000C9435000C945D000C945D000C945D0024
:100010000C945D000C945D000C945D000C945D00EC
:100020000C945D000C945D000C945D000C945D00DC
:100030000C945D000C945D000C945D000C945D00CC
:100040000C9428030C945D000C94F6020C94D002DE
:100050000C945D000C945D000C945D000C945D00AC
:100060000C945D000C945D00720311241FBECFEF51
:10007000D8E0DEBFCDBF11E0A0E0B1E0EAE5FEE0F0
:1000800002C005900D92A433B107D9F721E0A4E393
:10009000B1E001C01D92A23EB207E1F710E0C5E356
:1000A000D0E004C02197FE010E942507C433D10788
:1000B000C9F70E94AB030C942B070C940000AF927D
:1000C000BF92CF92DF92EF92FF920F931F93CF9345
:1000D000DF936C017B018B01040F151FEB015E01A7
:1000E000AE18BF08C017D10759F06991D601ED913C
:1000F000FC910190F081E02DC6010995892B79F7DB
:10010000C501DF91CF911F910F91FF90EF90DF908C
:10011000CF90BF90AF900895FC01538D448D252F53
:1001200030E0842F90E0821B930B541710F0CF9691
:10013000089501970895FC01918D828D981761F0C3
:10014000A28DAE0FBF2FB11D5D968C91928D9F5FDA
:100150009F73928F90E008958FEF9FEF0895FC01B9
:10016000918D828D981731F0828DE80FF11D858D6C
:1001700090E008958FEF9FEF0895FC01918D228DFF
:10018000892F90E0805C9F4F821B91098F73992784
:10019000089581E491E00E94BD0021E0892B09F4DB
:1001A00020E0822F089580E090E0892B29F00E94C2
:1001B000C90081110C9400000895FC01A48DA80FC2
:1001C000B92FB11DA35ABF4F2C91848D90E0019699
:1001D0008F739927848FA689B7892C93A089B189B9
:1001E0008C91837080648C93938D848D981306C05A
:1001F0000288F389E02D80818F7D80830895EF92BE
:10020000FF920F931F93CF93DF93EC0181E0888FD0
:100210009B8D8C8D98131AC0E889F989808185FFA0
:1002200015C09FB7F894EE89FF896083E889F98942
:1002300080818370806480839FBF81E090E0DF9144
:10024000CF911F910F91FF90EF900895F62E0B8D97
:1002500010E00F5F1F4F0F731127E02E8C8D8E1152
:100260000CC00FB607FCFACFE889F989808185FFB9
:10027000F5CFCE010E94DD00F1CFEB8DEC0FFD2F0D
:10028000F11DE35AFF4FF0829FB7F8940B8FEA8974
:10029000FB8980818062CFCFCF93DF93EC01888D83
:1002A0008823B9F0AA89BB89E889F9898C9185FDF1
:1002B00003C0808186FD0DC00FB607FCF7CF8C917F
:1002C00085FFF2CF808185FFEDCFCE010E94DD005A
:1002D000E9CFDF91CF9108958E50806480937C00A8
:1002E00080917A00806480937A0080917A0086FD04
:1002F000FCCF809178009091790008953FB7F894F1
:100300008091390190913A01A0913B01B0913C015B
:1003100026B5A89B05C02F3F19F00196A11DB11D60
:100320003FBFBA2FA92F982F8827BC01CD01620F9C
:10033000711D811D911D42E0660F771F881F991F57
:100340004A95D1F70895FC0101900020E9F7319713
:10035000AF01481B590BBC0181E491E00C945F0094
:100360008F929F92AF92BF920F931F93CF93DF9381
:10037000CDB7DEB7A1970FB6F894DEBF0FBECDBFE5
:1003800019A2423008F44AE08E010F5D1F4F842EFF
:10039000912CB12CA12CA50194010E940307E62FFA
:1003A000B901CA01EA30F4F4E05DD801EE938D01A1
:1003B000232B242B252B79F790E080E0109719F060
:1003C000CD010E94A301A1960FB6F894DEBF0FBE27
:1003D000CDBFDF91CF911F910F91BF90AF909F90B4
:1003E0008F900895E95CE1CF4F925F926F927F9278
:1003F0008F929F92AF92BF92CF92DF92EF92FF9235
:100400000F931F93CF936B017C01742EAC019B0162
:100410000E94FE06882399F082E191E0CF911F911E
:100420000F91FF90EF90DF90CF90BF90AF909F9093
:100430008F907F906F905F904F900C94A301460136
:100440005701E894B7F82FEF3FEF4FE75FE7C5019B
:10045000B4010E94FE0681110DC02FEF3FEF4FE760
:100460005FE7C501B4010E94340518161CF486E14B
:1004700091E0D4CF2FEF3FEF4FE75FE4C701B60124
:100480000E948C0618161CF48AE191E0C7CF2FEF6A
:100490003FEF4FE75FECC701B6010E94340587FDCF
:1004A000F3CF20E030E0A901C701B6010E94340576
:1004B00010E000E087FF0AC06DE281E491E00E9455
:1004C000FF008C01F7FAF094F7F8F094C0E060E0D8
:1004D00070E080E09FE37C1641F020E030E040E2F5
:1004E00051E40E943905CF5FF6CFA70196010E9423
:1004F000C8042B013C010E94AB054B015C014AE0A2
:100500000E94B0017C01E00EF11ECC23C1F1C501B7
:10051000B4010E94DA059B01AC01C301B2010E9443
:10052000C7044B015C016EE281E491E00E94FF0090
:10053000E80EF91EC15018F120E030E040E251E42D
:10054000C501B4010E9491062B013C010E94AB053C
:100550004B01B12CA12C4AE0C501B4010E94B001AD
:10056000E80EF91EC501B4010E94DA059B01AC0139
:10057000C301B2010E94C7044B015C01DBCFC7017C
:10058000CF911F910F91FF90EF90DF90CF90BF9090
:10059000AF909F908F907F906F905F904F90089555
:1005A0001F920F920FB60F9211242F933F934F93E8
:1005B0005F936F937F938F939F93AF93BF93EF93CB
:1005C000FF9381E491E00E94DD00FF91EF91BF91E4
:1005D000AF919F918F917F916F915F914F913F91DB
:1005E0002F910F900FBE0F901F9018951F920F9292
:1005F0000FB60F9211242F938F939F93EF93FF9336
:10060000E0915101F09152018081E0915701F09108
:10061000580182FD1BC0908180915A018F5F8F73BA
:1006200020915B01821741F0E0915A01F0E0EF5B0D
:10063000FE4F958F80935A01FF91EF919F918F917B
:100640002F910F900FBE0F901F9018958081F4CFBF
:100650001F920F920FB60F9211242F933F938F93F7
:100660009F93AF93BF938091350190913601A091F4
:100670003701B09138013091340123E0230F2D3739
:1006800058F50196A11DB11D2093340180933501C9
:1006900090933601A0933701B093380180913901CE
:1006A00090913A01A0913B01B0913C010196A11DAE
:1006B000B11D8093390190933A01A0933B01B0930F
:1006C0003C01BF91AF919F918F913F912F910F90DE
:1006D0000FBE0F901F90189526E8230F0296A11DBC
:1006E000B11DD2CFE1E4F1E01382128288EE93E0F3
:1006F000A0E0B0E084839583A683B78384E091E093
:100700009183808385EC90E09587848784EC90E0EA
:100710009787868780EC90E0918B808B81EC90E0CE
:10072000938B828B82EC90E0958B848B86EC90E0AF
:10073000978B868B118E128E138E148E80E090E034
:10074000A0E2B0E48093DE019093DF01A093E0018A
:10075000B093E1010895789484B5826084BD84B536
:10076000816084BD85B5826085BD85B5816085BDAC
:1007700080916E00816080936E0010928100809164
:1007800081008260809381008091810081608093EC
:100790008100809180008160809380008091B10011
:1007A00084608093B1008091B00081608093B0003C
:1007B00080917A00846080937A0080917A008260D0
:1007C00080937A0080917A00816080937A00809192
:1007D0007A00806880937A001092C100E091510104
:1007E000F091520182E08083E0914D01F0914E0141
:1007F0001082E0914F01F09150018FEC80831092B4
:100800005901E0915501F091560186E08083E09115
:100810005301F0915401808180618083E091530104
:10082000F0915401808188608083E0915301F091C0
:100830005401808180688083E0915301F0915401DC
:1008400080818F7D8083C0E0D0E08EE00E946C01CB
:10085000BC01990F880B990B0E94DC0520E030E069
:1008600040EA50E40E94910620E030E048E252E481
:100870000E94910620E030EC4FE754E40E943905D5
:1008800060933D0170933E0180933F01909340013E
:100890008FE00E946C01BC01990F880B990B0E949C
:1008A000DC052AE038E240EA5BE30E9491062091F1
:1008B000DE013091DF014091E0015091E1010E94A1
:1008C000C70426EA3BE944E45CE30E94C8042DEC3B
:1008D0003CEC4CEC5DE30E9439056B017C018EE140
:1008E00091E00E94A30160913D0170913E018091D1
:1008F0003F019091400142E00E94F40185E291E0C5
:100900000E94A30187E291E00E94A3018AE291E0A4
:100910000E94A30142E0C701B6010E94F40182E3F4
:1009200091E00E94A30187E291E00E94A3010E944E
:100930007E014B015C0180EDC82E87E0D82EE12CB2
:10094000F12C0E947E01681979098A099B09683E89
:10095000734081059105A8F321E0C21AD108E1088E
:10096000F10888EE880E83E0981EA11CB11CC1140A
:10097000D104E104F10429F7209709F466CF0E941D
:10098000C900882309F461CF0E9400005ECF50584F
:10099000BB27AA270E94DF040C9452060E9444063B
:1009A00038F00E944B0620F039F49F3F19F426F4EA
:1009B0000C9441060EF4E095E7FB0C943B06E92FFE
:1009C0000E94630658F3BA176207730784079507F6
:1009D00020F079F4A6F50C9485060EF4E0950B2E24
:1009E000BA2FA02D0B01B90190010C01CA01A00181
:1009F0001124FF27591B99F0593F50F4503E68F1DC
:100A00001A16F040A22F232F342F4427585FF3CF1C
:100A1000469537952795A795F0405395C9F77EF4ED
:100A20001F16BA0B620B730B840BBAF09150A1F036
:100A3000FF0FBB1F661F771F881FC2F70EC0BA0FBC
:100A4000621F731F841F48F4879577956795B79544
:100A5000F7959E3F08F0B0CF9395880F08F099273F
:100A6000EE0F9795879508950E94170608F481E088
:100A700008950E944D050C9452060E944B0658F0B2
:100A80000E94440640F029F45F3F29F00C943B0695
:100A900051110C9486060C9441060E94630668F37B
:100AA0009923B1F3552391F3951B550BBB27AA2727
:100AB00062177307840738F09F5F5F4F220F331F61
:100AC000441FAA1FA9F335D00E2E3AF0E0E832D029
:100AD00091505040E695001CCAF72BD0FE2F29D02C
:100AE000660F771F881FBB1F261737074807AB07FE
:100AF000B0E809F0BB0B802DBF01FF2793585F4F73
:100B00003AF09E3F510578F00C943B060C94860613
:100B10005F3FE4F3983ED4F3869577956795B79554
:100B2000F7959F5FC9F7880F911D9695879597F95F
:100B30000895E1E0660F771F881FBB1F62177307D8
:100B40008407BA0720F0621B730B840BBA0BEE1FED
:100B500088F7E09508950E946B0688F09F5798F0FB
:100B6000B92F9927B751B0F0E1F0660F771F881FB2
:100B7000991F1AF0BA95C9F714C0B13091F00E94CC
:100B80008506B1E008950C948506672F782F882795
:100B9000B85F39F0B93FCCF3869577956795B395F3
:100BA000D9F73EF490958095709561957F4F8F4F62
:100BB0009F4F0895E89409C097FB3EF49095809567
:100BC000709561957F4F8F4F9F4F9923A9F0F92F13
:100BD00096E9BB279395F695879577956795B79591
:100BE000F111F8CFFAF4BB0F11F460FF1BC06F5F77
:100BF0007F4F8F4F9F4F16C0882311F096E911C089
:100C0000772321F09EE8872F762F05C0662371F0A9
:100C100096E8862F70E060E02AF09A95660F771FBD
:100C2000881FDAF7880F9695879597F90895990F99
:100C30000008550FAA0BE0E8FEEF16161706E807A6
:100C4000F907C0F012161306E407F50798F0621BC7
:100C5000730B840B950B39F40A2661F0232B242B9C
:100C6000252B21F408950A2609F4A140A6958FEFBB
:100C7000811D811D089597F99F6780E870E060E00D
:100C800008959FEF80EC089500240A941616170625
:100C900018060906089500240A941216130614066D
:100CA00005060895092E0394000C11F4882352F0D0
:100CB000BB0F40F4BF2B11F460FF04C06F5F7F4F88
:100CC0008F4F9F4F089557FD9058440F551F59F06F
:100CD0005F3F71F04795880F97FB991F61F09F3F29
:100CE00079F087950895121613061406551FF2CF52
:100CF0004695F1DF08C0161617061806991FF1CFA2
:100D000086957105610508940895E894BB276627C8
:100D10007727CB0197F908950E94170608F48FEF03
:100D200008950E94A4060C9452060E94440638F0CE
:100D30000E944B0620F0952311F00C943B060C9476
:100D4000410611240C9486060E94630670F3959F59
:100D5000C1F3950F50E0551F629FF001729FBB27B2
:100D6000F00DB11D639FAA27F00DB11DAA1F649F4E
:100D70006627B00DA11D661F829F2227B00DA11D01
:100D8000621F739FB00DA11D621F839FA00D611D87
:100D9000221F749F3327A00D611D231F849F600DA8
:100DA000211D822F762F6A2F11249F5750409AF0D1
:100DB000F1F088234AF0EE0FFF1FBB1F661F771F5D
:100DC000881F91505040A9F79E3F510580F00C9428
:100DD0003B060C9486065F3FE4F3983ED4F3869579
:100DE00077956795B795F795E7959F5FC1F7FE2BC8
:100DF000880F911D9695879597F908950E9417067B
:100E0000880B990B0895A1E21A2EAA1BBB1BFD01AA
:100E10000DC0AA1FBB1FEE1FFF1FA217B307E407D9
:100E2000F50720F0A21BB30BE40BF50B661F771F31
:100E3000881F991F1A9469F7609570958095909511
:100E40009B01AC01BD01CF010895EE0FFF1F05907E
:0A0E5000F491E02D0994F894FFCF0F
:100E5A0000000000FF005F008C004C01BD009B00F9
:100E6A00AF006E616E00696E66006F76660056703E
:100E7A0076203D200056000D0A0009204970763A76
:040E8A002000410003
:00000001FF
