:100000000C9435000C945D000C945D000C945D0024
:100010000C945D000C945D000C945D000C945D00EC
:100020000C945D000C945D000C945D000C945D00DC
:100030000C945D000C945D000C945D000C945D00CC
:100040000C9436030C945D000C9404030C94DE02B3
:100050000C945D000C945D000C945D000C945D00AC
:100060000C945D000C945D00800311241FBECFEF43
:10007000D8E0DEBFCDBF11E0A0E0B1E0E2EBF0E1FF
:1000800002C005900D92A238B107D9F722E0A2E88C
:10009000B1E001C01D92A833B207E1F710E0C5E35B
:1000A000D0E004C02197FE010E945108C433D1075B
:1000B000C9F70E94D3030C9457080C940000AF9228
:1000C000BF92CF92DF92EF92FF920F931F93CF9345
:1000D000DF936C017B018B01040F151FEB015E01A7
:1000E000AE18BF08C017D10759F06991D601ED913C
:1000F000FC910190F081E02DC6010995892B79F7DB
:10010000C501DF91CF911F910F91FF90EF90DF908C
:10011000CF90BF90AF900895FC01538D448D252F53
:1001200030E0842F90E0821B930B541710F0CF9691
:10013000089501970895FC01918D828D981761F0C3
:10014000A28DAE0FBF2FB11D5D968C91928D9F5FDA
:100150009F73928F90E008958FEF9FEF0895FC01B9
:10016000918D828D981731F0828DE80FF11D858D6C
:1001700090E008958FEF9FEF0895FC01918D228DFF
:10018000892F90E0805C9F4F821B91098F73992784
:10019000089583E991E00E94BD0021E0892B09F4D4
:1001A00020E0822F089580E090E0892B29F00E94C2
:1001B000C90081110C9400000895FC01A48DA80FC2
:1001C000B92FB11DA35ABF4F2C91848D90E0019699
:1001D0008F739927848FA689B7892C93A089B189B9
:1001E0008C91837080648C93938D848D981306C05A
:1001F0000288F389E02D80818F7D80830895EF92BE
:10020000FF920F931F93CF93DF93EC0181E0888FD0
:100210009B8D8C8D98131AC0E889F989808185FFA0
:1002200015C09FB7F894EE89FF896083E889F98942
:1002300080818370806480839FBF81E090E0DF9144
:10024000CF911F910F91FF90EF900895F62E0B8D97
:1002500010E00F5F1F4F0F731127E02E8C8D8E1152
:100260000CC00FB607FCFACFE889F989808185FFB9
:10027000F5CFCE010E94DD00F1CFEB8DEC0FFD2F0D
:10028000F11DE35AFF4FF0829FB7F8940B8FEA8974
:10029000FB8980818062CFCFCF93DF93EC01888D83
:1002A0008823B9F0AA89BB89E889F9898C9185FDF1
:1002B00003C0808186FD0DC00FB607FCF7CF8C917F
:1002C00085FFF2CF808185FFEDCFCE010E94DD005A
:1002D000E9CFDF91CF9108958E50806480937C00A8
:1002E00080917A00806480937A0080917A0086FD04
:1002F000FCCF809178009091790008953FB7F894F1
:100300008091870190918801A0918901B0918A0123
:1003100026B5A89B05C02F3F19F00196A11DB11D60
:100320003FBFBA2FA92F982F8827BC01CD01620F9C
:10033000711D811D911D42E0660F771F881F991F57
:100340004A95D1F70895FC0101900020E9F7319713
:10035000AF01481B590BBC0183E991E00C945F008D
:100360008F929F92AF92BF920F931F93CF93DF9381
:10037000CDB7DEB7A1970FB6F894DEBF0FBECDBFE5
:1003800019A2423008F44AE08E010F5D1F4F842EFF
:10039000912CB12CA12CA50194010E942F08E62FCD
:1003A000B901CA01EA30F4F4E05DD801EE938D01A1
:1003B000232B242B252B79F790E080E0109719F060
:1003C000CD010E94A301A1960FB6F894DEBF0FBE27
:1003D000CDBFDF91CF911F910F91BF90AF909F90B4
:1003E0008F900895E95CE1CFCF93DF930E94A30142
:1003F000EC018EE191E00E94A3018C0F9D1FDF9123
:10040000CF9108954F925F926F927F928F929F92B9
:10041000AF92BF92CF92DF92EF92FF920F931F9312
:10042000CF936B017C01742EAC019B010E942A08C2
:10043000882399F081E291E0CF911F910F91FF9075
:10044000EF90DF90CF90BF90AF909F908F907F9074
:100450006F905F904F900C94A30146015701E89470
:10046000B7F82FEF3FEF4FE75FE7C501B4010E94F8
:100470002A0881110DC02FEF3FEF4FE75FE7C5015D
:10048000B4010E94600618161CF485E291E0D4CFF6
:100490002FEF3FEF4FE75FE4C701B6010E94B807B7
:1004A00018161CF489E291E0C7CF2FEF3FEF4FE71A
:1004B0005FECC701B6010E94600687FDF3CF20E024
:1004C00030E0A901C701B6010E94600610E000E01B
:1004D00087FF0AC06DE283E991E00E94FF008C0172
:1004E000F7FAF094F7F8F094C0E060E070E080E094
:1004F0009FE37C1641F020E030E040E251E40E94AE
:100500006506CF5FF6CFA70196010E94F4052B0187
:100510003C010E94D7064B015C014AE00E94B001F9
:100520007C01E00EF11ECC23C1F1C501B4010E9493
:1005300006079B01AC01C301B2010E94F3054B0108
:100540005C016EE283E991E00E94FF00E80EF91E73
:10055000C15018F120E030E040E251E4C501B4019F
:100560000E94BD072B013C010E94D7064B01B12C14
:10057000A12C4AE0C501B4010E94B001E80EF91EA9
:10058000C501B4010E9406079B01AC01C301B20181
:100590000E94F3054B015C01DBCFC701CF911F9196
:1005A0000F91FF90EF90DF90CF90BF90AF909F9012
:1005B0008F907F906F905F904F9008951F920F9251
:1005C0000FB60F9211242F933F934F935F936F9326
:1005D0007F938F939F93AF93BF93EF93FF9383E9A1
:1005E00091E00E94DD00FF91EF91BF91AF919F914B
:1005F0008F917F916F915F914F913F912F910F90CC
:100600000FBE0F901F9018951F920F920FB60F926A
:1006100011242F938F939F93EF93FF93E091A30166
:10062000F091A4018081E091A901F091AA0182FDDD
:100630001BC090818091AC018F5F8F732091AD01C1
:10064000821741F0E091AC01F0E0ED56FE4F958F3E
:100650008093AC01FF91EF919F918F912F910F901B
:100660000FBE0F901F9018958081F4CF1F920F92AC
:100670000FB60F9211242F933F938F939F93AF93B5
:10068000BF938091830190918401A0918501B091E5
:1006900086013091820123E0230F2D3758F5019612
:1006A000A11DB11D20938201809383019093840149
:1006B000A0938501B0938601809187019091880174
:1006C000A0918901B0918A010196A11DB11D80936D
:1006D000870190938801A0938901B0938A01BF910B
:1006E000AF919F918F913F912F910F900FBE0F90DF
:1006F0001F90189526E8230F0296A11DB11DD2CF99
:10070000E3E9F1E01382128288EE93E0A0E0B0E02A
:1007100084839583A683B78380E191E0918380836E
:1007200085EC90E09587848784EC90E097878687B6
:1007300080EC90E0918B808B81EC90E0938B828BAE
:1007400082EC90E0958B848B86EC90E0978B868B87
:10075000118E128E138E148E20910401309105019A
:1007600040910601509107016091080170910901C3
:1007700080910A0190910B010E94BD0760933402A1
:1007800070933502809336029093370280E090E0B8
:10079000A0E2B0E48093300290933102A093320241
:1007A000B09333020895789484B5826084BD84B593
:1007B000816084BD85B5826085BD85B5816085BD5C
:1007C00080916E00816080936E0010928100809114
:1007D000810082608093810080918100816080939C
:1007E0008100809180008160809380008091B100C1
:1007F00084608093B1008091B00081608093B000EC
:1008000080917A00846080937A0080917A0082607F
:1008100080937A0080917A00816080937A00809141
:100820007A00806880937A001092C100E091A30161
:10083000F091A40182E08083E0919F01F091A001FA
:100840001082E091A101F091A2018FEC80831092BF
:10085000AB01E091A701F091A80186E08083E091CF
:10086000A501F091A601808180618083E091A501BE
:10087000F091A601808188608083E091A501F091CC
:10088000A601808180688083E091A501F091A60196
:1008900080818F7D8083C0E0D0E08EE00E946C017B
:1008A000BC01990F880B990B0E94080720E030E0EB
:1008B00040EA50E40E94BD0720E030E048E252E404
:1008C0000E94BD0720E030EC4FE754E40E9465062B
:1008D0004B015C0180928F0190929001A092910156
:1008E000B09292018FE00E946C01BC01990F880BBD
:1008F000990B0E9408072AE038E240EA5BE30E9475
:10090000BD07209130023091310240913202509166
:1009100033020E94F30526EA3BE944E45CE30E94CB
:10092000F4052DEC3CEC4CEC5DE30E9465066B019C
:100930007C01AC019B01C501B4010E94BD072B01E4
:100940003C0140928B0150928C0160928D0170921B
:100950008E01209108013091090140910A015091C6
:100960000B01C501B4010E94F3054B015C0120910C
:100970003402309135024091360250913702C30162
:10098000B2010E94F30520E030E0A9010E94B807FF
:1009900018160CF00DC120E030E0A901C501B4012A
:1009A0000E94B807181664F580900001909001012C
:1009B000A0900201B0900301209104013091050143
:1009C0004091060150910701C701B6010E94F3054D
:1009D00020E030E0A9010E94B8072AE037ED43E2A9
:1009E0005CE318160CF0DFC0C501B4010E94F405E9
:1009F00060930001709301018093020190930301C1
:100A00008DE291E00E94A30160918F0170919001AD
:100A1000809191019091920142E00E94020284E350
:100A200091E00E94F40186E391E00E94A30142E07C
:100A3000C701B6010E9402028EE391E00E94F40118
:100A400080E491E00E94A30160918B0170918C0180
:100A500080918D0190918E0142E00E94020288E413
:100A600091E00E94F4018AE491E00E94A301609168
:100A700008017091090180910A0190910B0142E0F7
:100A80000E94020284E391E00E94F4018AE591E071
:100A90000E94A301609104017091050180910601FB
:100AA0009091070142E00E9402028EE391E00E94D1
:100AB000F4018BE691E00E94A301609134027091F1
:100AC0003502809136029091370242E00E94020284
:100AD00088E491E00E94F4018CE791E00E94A30178
:100AE00060910001709101018091020190910301D8
:100AF00042E00E94020280918B0190918C01A091B2
:100B00008D01B0918E018093340290933502A093B1
:100B10003602B093370280918F0190919001A0919D
:100B20009101B09192018093080190930901A093E3
:100B30000A01B0930B01C0920401D0920501E0922A
:100B40000601F09207010E947E014B015C0180E1E9
:100B5000C82E87E2D82EE12CF12C0E947E01681964
:100B600079098A099B09683E734081059105A8F3BC
:100B700021E0C21AD108E108F10888EE880E83E06E
:100B8000981EA11CB11CC114D104E104F10429F781
:100B9000209709F482CE0E94C900882309F47DCEF3
:100BA0000E9400007ACEC501B4010E94F30520CF57
:100BB000409000015090010160900201709003018B
:100BC00020E030E0A901C501B4010E94B8072AE085
:100BD00037ED43E25CE318161CF4C301B20106CF03
:100BE000C301B201E2CF5058BB27AA270E940B06CF
:100BF0000C947E070E94700738F00E94770720F05F
:100C000039F49F3F19F426F40C946D070EF4E09527
:100C1000E7FB0C946707E92F0E948F0758F3BA1778
:100C2000620773078407950720F079F4A6F50C9402
:100C3000B1070EF4E0950B2EBA2FA02D0B01B901D0
:100C400090010C01CA01A0011124FF27591B99F042
:100C5000593F50F4503E68F11A16F040A22F232F4E
:100C6000342F4427585FF3CF469537952795A7959E
:100C7000F0405395C9F77EF41F16BA0B620B730B45
:100C8000840BBAF09150A1F0FF0FBB1F661F771FB6
:100C9000881FC2F70EC0BA0F621F731F841F48F46B
:100CA000879577956795B795F7959E3F08F0B0CFF4
:100CB0009395880F08F09927EE0F979587950895DB
:100CC0000E94430708F481E008950E9479060C947D
:100CD0007E070E94770758F00E94700740F029F4C1
:100CE0005F3F29F00C94670751110C94B2070C94E4
:100CF0006D070E948F0768F39923B1F3552391F391
:100D0000951B550BBB27AA2762177307840738F07A
:100D10009F5F5F4F220F331F441FAA1FA9F335D0D7
:100D20000E2E3AF0E0E832D091505040E695001C8B
:100D3000CAF72BD0FE2F29D0660F771F881FBB1F45
:100D4000261737074807AB07B0E809F0BB0B802D23
:100D5000BF01FF2793585F4F3AF09E3F510578F04F
:100D60000C9467070C94B2075F3FE4F3983ED4F30A
:100D7000869577956795B795F7959F5FC9F7880F23
:100D8000911D9695879597F90895E1E0660F771F75
:100D9000881FBB1F621773078407BA0720F0621B06
:100DA000730B840BBA0BEE1F88F7E09508950E9431
:100DB000970788F09F5798F0B92F9927B751B0F04F
:100DC000E1F0660F771F881F991F1AF0BA95C9F7CF
:100DD00014C0B13091F00E94B107B1E008950C94B5
:100DE000B107672F782F8827B85F39F0B93FCCF368
:100DF000869577956795B395D9F73EF4909580954C
:100E0000709561957F4F8F4F9F4F0895E89409C06B
:100E100097FB3EF490958095709561957F4F8F4F2D
:100E20009F4F9923A9F0F92F96E9BB279395F69543
:100E3000879577956795B795F111F8CFFAF4BB0FC1
:100E400011F460FF1BC06F5F7F4F8F4F9F4F16C025
:100E5000882311F096E911C0772321F09EE8872FAF
:100E6000762F05C0662371F096E8862F70E060E06B
:100E70002AF09A95660F771F881FDAF7880F9695E4
:100E8000879597F90895990F0008550FAA0BE0E888
:100E9000FEEF16161706E807F907C0F0121613063C
:100EA000E407F50798F0621B730B840B950B39F47C
:100EB0000A2661F0232B242B252B21F408950A26E2
:100EC00009F4A140A6958FEF811D811D089597F922
:100ED0009F6780E870E060E008959FEF80EC0895E0
:100EE00000240A9416161706180609060895002409
:100EF0000A9412161306140605060895092E039483
:100F0000000C11F4882352F0BB0F40F4BF2B11F4F6
:100F100060FF04C06F5F7F4F8F4F9F4F089557FD55
:100F20009058440F551F59F05F3F71F04795880F57
:100F300097FB991F61F09F3F79F0879508951216EE
:100F400013061406551FF2CF4695F1DF08C016169A
:100F500017061806991FF1CF86957105610508944B
:100F60000895E894BB2766277727CB0197F9089562
:100F70000E94430708F48FEF08950E94D0070C9455
:100F80007E070E94700738F00E94770720F09523B3
:100F900011F00C9467070C946D0711240C94B207A0
:100FA0000E948F0770F3959FC1F3950F50E0551F76
:100FB000629FF001729FBB27F00DB11D639FAA27AE
:100FC000F00DB11DAA1F649F6627B00DA11D661FFD
:100FD000829F2227B00DA11D621F739FB00DA11D1E
:100FE000621F839FA00D611D221F749F3327A00DD8
:100FF000611D231F849F600D211D822F762F6A2F74
:1010000011249F5750409AF0F1F088234AF0EE0FD8
:10101000FF1FBB1F661F771F881F91505040A9F705
:101020009E3F510580F00C9467070C94B2075F3F18
:10103000E4F3983ED4F3869577956795B795F79541
:10104000E7959F5FC1F7FE2B880F911D96958795B9
:1010500097F908950E944307880B990B0895A1E220
:101060001A2EAA1BBB1BFD010DC0AA1FBB1FEE1F22
:10107000FF1FA217B307E407F50720F0A21BB30B6D
:10108000E40BF50B661F771F881F991F1A9469F7E9
:1010900060957095809590959B01AC01BD01CF0145
:1010A0000895EE0FFF1F0590F491E02D0994F89438
:0210B000FFCF70
:1010B2008FC2353F0000803F0000803F00000000EB
:1010C200FF005F008C004C01BD009B00AF000D0AC9
:1010D200006E616E00696E66006F7666005670760D
:1010E200203D2000560009204970763A2000410038
:1010F20009205076703A2000570056707620616EB3
:10110200746572696F72203D200009204970762053
:10111200616E746572696F723A20000920507670B0
:1011220020616E746572696F723A20000920443A38
:0211320020009B
:00000001FF
