:100000000C945D000C9485000C9485000C94850084
:100010000C9485000C9485000C9485000C9485004C
:100020000C9485000C9485000C9485000C9485003C
:100030000C9485000C9485000C9485000C9485002C
:100040000C943E030C9485000C940C030C94E60273
:100050000C9485000C9485000C9485000C9485000C
:100060000C9485000C94850000000008000201003B
:100070000003040700000000000000000000000072
:10008000250028002B0000000000240027002A0083
:10009000040404040404040402020202020203032E
:1000A0000303030301020408102040800102040836
:1000B00010200102040810204E0511241FBECFEFAE
:1000C000D8E0DEBFCDBF11E0A0E0B1E0E2ECFFE0A0
:1000D00002C005900D92AE33B107D9F721E0AEE32F
:1000E000B1E001C01D92A03FB207E1F710E0CDE5FD
:1000F000D0E004C02197FE010E94D907CC35D1077A
:10010000C9F70E9488030C94DF070C940000AF929B
:10011000BF92CF92DF92EF92FF920F931F93CF93F4
:10012000DF936C017B018B01040F151FEB015E0156
:10013000AE18BF08C017D10759F06991D601ED91EB
:10014000FC910190F081E02DC6010995892B79F78A
:10015000C501DF91CF911F910F91FF90EF90DF903C
:10016000CF90BF90AF900895FC01538D448D252F03
:1001700030E0842F90E0821B930B541710F0CF9641
:10018000089501970895FC01918D828D981761F073
:10019000A28DAE0FBF2FB11D5D968C91928D9F5F8A
:1001A0009F73928F90E008958FEF9FEF0895FC0169
:1001B000918D828D981731F0828DE80FF11D858D1C
:1001C00090E008958FEF9FEF0895FC01918D228DAF
:1001D000892F90E0805C9F4F821B91098F73992734
:1001E000089583E591E00E94E50021E0892B09F460
:1001F00020E0822F089580E090E0892B29F00E9472
:10020000F10081110C9400000895FC01A48DA80F49
:10021000B92FB11DA35ABF4F2C91848D90E0019648
:100220008F739927848FA689B7892C93A089B18968
:100230008C91837080648C93938D848D981306C009
:100240000288F389E02D80818F7D80830895EF926D
:10025000FF920F931F93CF93DF93EC0181E0888F80
:100260009B8D8C8D98131AC0E889F989808185FF50
:1002700015C09FB7F894EE89FF896083E889F989F2
:1002800080818370806480839FBF81E090E0DF91F4
:10029000CF911F910F91FF90EF900895F62E0B8D47
:1002A00010E00F5F1F4F0F731127E02E8C8D8E1102
:1002B0000CC00FB607FCFACFE889F989808185FF69
:1002C000F5CFCE010E940501F1CFEB8DEC0FFD2F94
:1002D000F11DE35AFF4FF0829FB7F8940B8FEA8924
:1002E000FB8980818062CFCFCF93DF93EC01888D33
:1002F0008823B9F0AA89BB89E889F9898C9185FDA1
:1003000003C0808186FD0DC00FB607FCF7CF8C912E
:1003100085FFF2CF808185FFEDCFCE010E940501E0
:10032000E9CFDF91CF9108953FB7F89480914301D1
:1003300090914401A0914501B091460126B5A89B3A
:1003400005C02F3F19F00196A11DB11D3FBFBA2F67
:10035000A92F982F8827BC01CD01620F711D811D27
:10036000911D42E0660F771F881F991F4A95D1F7AC
:100370000895FC0101900020E9F73197AF01481B77
:10038000590BBC0183E591E00C9487008F929F92FA
:10039000AF92BF920F931F93CF93DF93CDB7DEB78A
:1003A000A1970FB6F894DEBF0FBECDBF19A24230A1
:1003B00008F44AE08E010F5D1F4F842E912CB12C62
:1003C000A12CA50194010E94B707E62FB901CA012B
:1003D000EA30F4F4E05DD801EE938D01232B242B59
:1003E000252B79F790E080E0109719F0CD010E945D
:1003F000B901A1960FB6F894DEBF0FBECDBFDF9155
:10040000CF911F910F91BF90AF909F908F900895C3
:10041000E95CE1CF4F925F926F927F928F929F92B1
:10042000AF92BF92CF92DF92EF92FF920F931F9302
:10043000CF936B017C01742EAC019B010E94B2072B
:10044000882399F082E191E0CF911F910F91FF9065
:10045000EF90DF90CF90BF90AF909F908F907F9064
:100460006F905F904F900C94B90146015701E8944A
:10047000B7F82FEF3FEF4FE75FE7C501B4010E94E8
:10048000B20781110DC02FEF3FEF4FE75FE7C501C6
:10049000B4010E94E80518161CF486E191E0D4CF5F
:1004A0002FEF3FEF4FE75FE4C701B6010E9440071F
:1004B00018161CF48AE191E0C7CF2FEF3FEF4FE70A
:1004C0005FECC701B6010E94E80587FDF3CF20E08D
:1004D00030E0A901C701B6010E94E80510E000E084
:1004E00087FF0AC06DE283E591E00E9427018C013D
:1004F000F7FAF094F7F8F094C0E060E070E080E084
:100500009FE37C1641F020E030E040E251E40E949D
:10051000ED05CF5FF6CFA70196010E947C052B0168
:100520003C010E945F064B015C014AE00E94C6014B
:100530007C01E00EF11ECC23C1F1C501B4010E9483
:100540008E069B01AC01C301B2010E947B054B01E9
:100550005C016EE283E591E00E942701E80EF91E3E
:10056000C15018F120E030E040E251E4C501B4018F
:100570000E9445072B013C010E945F064B01B12CF4
:10058000A12C4AE0C501B4010E94C601E80EF91E83
:10059000C501B4010E948E069B01AC01C301B201EA
:1005A0000E947B054B015C01DBCFC701CF911F91FE
:1005B0000F91FF90EF90DF90CF90BF90AF909F9002
:1005C0008F907F906F905F904F9008951F920F9241
:1005D0000FB60F9211242F933F934F935F936F9316
:1005E0007F938F939F93AF93BF93EF93FF9383E595
:1005F00091E00E940501FF91EF91BF91AF919F9112
:100600008F917F916F915F914F913F912F910F90BB
:100610000FBE0F901F9018951F920F920FB60F925A
:1006200011242F938F939F93EF93FF93E091630196
:10063000F09164018081E0916901F0916A0182FD8D
:100640001BC0908180916C018F5F8F7320916D0131
:10065000821741F0E0916C01F0E0ED5AFE4F958F6A
:1006600080936C01FF91EF919F918F912F910F904B
:100670000FBE0F901F9018958081F4CF1F920F929C
:100680000FB60F9211242F933F938F939F93AF93A5
:10069000BF9380913F0190914001A0914101B091A1
:1006A000420130913E0123E0230F2D3758F501968A
:1006B000A11DB11D20933E0180933F019093400105
:1006C000A0934101B0934201809143019091440174
:1006D000A0914501B09146010196A11DB11D8093E5
:1006E000430190934401A0934501B0934601BF910B
:1006F000AF919F918F913F912F910F900FBE0F90CF
:100700001F90189526E8230F0296A11DB11DD2CF88
:10071000789484B5826084BD84B5816084BD85B5DC
:10072000826085BD85B5816085BD80916E008160E8
:1007300080936E001092810080918100826080938E
:100740008100809181008160809381008091800090
:100750008160809380008091B10084608093B100BB
:100760008091B00081608093B00080917A008460B5
:1007700080937A0080917A00826080937A008091E1
:100780007A00816080937A0080917A0080688093FB
:100790007A001092C100E0916301F091640182E05F
:1007A0008083E0915F01F09160011082E09161012E
:1007B000F09162018FEC808310926B01E0916701F0
:1007C000F091680186E08083E0916501F091660117
:1007D000808180618083E0916501F0916601808174
:1007E00088608083E0916501F09166018081806876
:1007F0008083E0916501F091660180818F7D808327
:1008000030E4232E45E5442E542C642C40E4742E11
:10081000C3E0D0E053E0352E00E010E020927C00F1
:1008200080917A00806480937A0080917A0086FDBE
:10083000FCCF8091780060917900762F682F072E89
:10084000000C880B990B0E94900660934F017093E7
:100850005001809351019093520140924B0150926C
:100860004C0160924D0170924E0120E030E040EA70
:1008700050E40E94450720E030EC4FE754E40E942A
:10088000ED0560934701709348018093490190936F
:100890004A01E7EBF0E04491E3EAF0E08491882339
:1008A00099F090E0880F991FFC01EA57FF4FA5913E
:1008B000B491FC01E458FF4F259134918FB7F8941F
:1008C0009C91492B4C938FBFEBE7F0E084918330F0
:1008D00009F4A8C070F5813009F43DC0823009F4F4
:1008E0009CC0EBE7F0E09491E7EBF0E08491E3EA61
:1008F000F0E02491222399F1992359F0933009F4DF
:10090000B6C008F0A9C0913009F4B7C0923009F41C
:10091000B8C0E22FF0E0EE0FFF1FE458FF4FA591A3
:10092000B4919FB7F8942C91809582238C939FBFAC
:1009300016C0873009F480C0883009F485C084303F
:1009400081F680918000806280938000D0938B003C
:10095000C0938A0004C084B5806884BD37BC8EE132
:1009600091E00E94B90160914F0170915001809116
:1009700051019091520142E00E940A0288E291E006
:100980000E94B90160914B0170914C0180914D0121
:1009900090914E0142E00E940A0284E391E00E949D
:1009A000B90160914701709148018091490190918E
:1009B0004A0142E00E940A020E9494014B015C013C
:1009C00080EDC82E87E0D82EE12CF12C0E949401F6
:1009D000681979098A099B09683E73408105910568
:1009E000A8F3F1E0CF1AD108E108F10828EE820E51
:1009F00023E0921EA11CB11CC114D104E104F10436
:100A000029F70115110509F409CF0E94F100882387
:100A100009F404CF0E94000001CF84B5806284BD38
:100A200038BC9DCF80918000806880938000D093F7
:100A30008900C093880093CF8091B0008068809334
:100A4000B0003092B3008BCF8091B0008062809371
:100A5000B0003092B40083CF9730B1F09830D1F02D
:100A6000943009F056CF909180009F7D03C0909103
:100A700080009F77909380004CCF94B59F7794BD72
:100A800048CF94B59F7DFBCF9091B0009F77909316
:100A9000B0003FCF9091B0009F7DF9CFE3E5F1E04A
:100AA0001382128288EE93E0A0E0B0E08483958305
:100AB000A683B78384E091E09183808385EC90E006
:100AC0009587848784EC90E09787868780EC90E018
:100AD000918B808B81EC90E0938B828B82EC90E009
:100AE000958B848B86EC90E0978B868B118E128E83
:100AF000138E148E08955058BB27AA270E94930581
:100B00000C9406070E94F80638F00E94FF0620F0B9
:100B100039F49F3F19F426F40C94F5060EF4E09591
:100B2000E7FB0C94EF06E92F0E94170758F3BA175A
:100B3000620773078407950720F079F4A6F50C94F3
:100B400039070EF4E0950B2EBA2FA02D0B01B90139
:100B500090010C01CA01A0011124FF27591B99F033
:100B6000593F50F4503E68F11A16F040A22F232F3F
:100B7000342F4427585FF3CF469537952795A7958F
:100B8000F0405395C9F77EF41F16BA0B620B730B36
:100B9000840BBAF09150A1F0FF0FBB1F661F771FA7
:100BA000881FC2F70EC0BA0F621F731F841F48F45C
:100BB000879577956795B795F7959E3F08F0B0CFE5
:100BC0009395880F08F09927EE0F979587950895CC
:100BD0000E94CB0608F481E008950E9401060C945F
:100BE00006070E94FF0658F00E94F80640F029F41C
:100BF0005F3F29F00C94EF0651110C943A070C94C6
:100C0000F5060E94170768F39923B1F3552391F372
:100C1000951B550BBB27AA2762177307840738F06B
:100C20009F5F5F4F220F331F441FAA1FA9F335D0C8
:100C30000E2E3AF0E0E832D091505040E695001C7C
:100C4000CAF72BD0FE2F29D0660F771F881FBB1F36
:100C5000261737074807AB07B0E809F0BB0B802D14
:100C6000BF01FF2793585F4F3AF09E3F510578F040
:100C70000C94EF060C943A075F3FE4F3983ED4F3EC
:100C8000869577956795B795F7959F5FC9F7880F14
:100C9000911D9695879597F90895E1E0660F771F66
:100CA000881FBB1F621773078407BA0720F0621BF7
:100CB000730B840BBA0BEE1F88F7E09508950E9422
:100CC0001F0788F09F5798F0B92F9927B751B0F0B8
:100CD000E1F0660F771F881F991F1AF0BA95C9F7C0
:100CE00014C0B13091F00E943907B1E008950C941E
:100CF0003907672F782F8827B85F39F0B93FCCF3D1
:100D0000869577956795B395D9F73EF4909580953C
:100D1000709561957F4F8F4F9F4F0895E89409C05C
:100D200097FB3EF490958095709561957F4F8F4F1E
:100D30009F4F9923A9F0F92F96E9BB279395F69534
:100D4000879577956795B795F111F8CFFAF4BB0FB2
:100D500011F460FF1BC06F5F7F4F8F4F9F4F16C016
:100D6000882311F096E911C0772321F09EE8872FA0
:100D7000762F05C0662371F096E8862F70E060E05C
:100D80002AF09A95660F771F881FDAF7880F9695D5
:100D9000879597F90895990F0008550FAA0BE0E879
:100DA000FEEF16161706E807F907C0F0121613062D
:100DB000E407F50798F0621B730B840B950B39F46D
:100DC0000A2661F0232B242B252B21F408950A26D3
:100DD00009F4A140A6958FEF811D811D089597F913
:100DE0009F6780E870E060E008959FEF80EC0895D1
:100DF00000240A94161617061806090608950024FA
:100E00000A9412161306140605060895092E039473
:100E1000000C11F4882352F0BB0F40F4BF2B11F4E7
:100E200060FF04C06F5F7F4F8F4F9F4F089557FD46
:100E30009058440F551F59F05F3F71F04795880F48
:100E400097FB991F61F09F3F79F0879508951216DF
:100E500013061406551FF2CF4695F1DF08C016168B
:100E600017061806991FF1CF86957105610508943C
:100E70000895E894BB2766277727CB0197F9089553
:100E80000E94CB0608F48FEF08950E9458070C9437
:100E900006070E94F80638F00E94FF0620F095230E
:100EA00011F00C94EF060C94F50611240C943A07FB
:100EB0000E94170770F3959FC1F3950F50E0551FDF
:100EC000629FF001729FBB27F00DB11D639FAA279F
:100ED000F00DB11DAA1F649F6627B00DA11D661FEE
:100EE000829F2227B00DA11D621F739FB00DA11D0F
:100EF000621F839FA00D611D221F749F3327A00DC9
:100F0000611D231F849F600D211D822F762F6A2F64
:100F100011249F5750409AF0F1F088234AF0EE0FC9
:100F2000FF1FBB1F661F771F881F91505040A9F7F6
:100F30009E3F510580F00C94EF060C943A075F3FFA
:100F4000E4F3983ED4F3869577956795B795F79532
:100F5000E7959F5FC1F7FE2B880F911D96958795AA
:100F600097F908950E94CB06880B990B0895A1E28A
:100F70001A2EAA1BBB1BFD010DC0AA1FBB1FEE1F13
:100F8000FF1FA217B307E407F50720F0A21BB30B5E
:100F9000E40BF50B661F771F881F991F1A9469F7DA
:100FA00060957095809590959B01AC01BD01CF0136
:100FB0000895EE0FFF1F0590F491E02D0994F89429
:020FC000FFCF61
:100FC2000000000027018700B4007401E500C3009F
:100FD200D7006E616E00696E66006F76660073659B
:100FE2006E736F72203D200009206F7574707574E6
:0E0FF200203D20000920766F6C203D2000007D
:00000001FF
