:100000000C945D000C9485000C9485000C94850084
:100010000C9485000C9485000C9485000C9485004C
:100020000C9485000C9485000C9485000C9485003C
:100030000C9485000C9485000C9485000C9485002C
:100040000C94B7030C9485000C9485000C948500E7
:100050000C9485000C9485000C9485000C9485000C
:100060000C9485000C94850000000008000201003B
:100070000003040700000000000000000000000072
:10008000250028002B0000000000240027002A0083
:10009000040404040404040402020202020203032E
:1000A0000303030301020408102040800102040836
:1000B0001020010204081020C60511241FBECFEF36
:1000C000D8E0DEBFCDBF11E0A0E0B1E0E0EEF0E1AE
:1000D00002C005900D92A633B107D9F721E0A6E33F
:1000E000B1E001C01D92AB36B207E1F710E0CDE5FB
:1000F000D0E004C02197FE010E946808CC35D107EA
:10010000C9F70E9401040C946E080C94000090E062
:10011000FC01EC55FF4F249180579F4FFC018491C7
:10012000882399F090E0880F991FFC01EA57FF4F50
:10013000A591B491FC01E458FF4F859194918FB73C
:10014000F894EC91E22BEC938FBF0895AF92BF929D
:10015000CF92DF92EF92FF920F931F93CF93DF9393
:100160006C017B018B01040F151FEB015E01AE18C2
:10017000BF08C017D10759F06991D601ED91FC91E4
:100180000190F081E02DC6010995892B79F7C50111
:10019000DF91CF911F910F91FF90EF90DF90CF9063
:1001A000BF90AF90089590E0FC01E859FF4F249173
:1001B000FC01EC55FF4F3491FC01E057FF4FE491F7
:1001C000EE23C9F0222339F0233001F1A8F42130C5
:1001D00019F1223029F1F0E0EE0FFF1FE458FF4F34
:1001E000A591B4918FB7F894EC91611126C0309528
:1001F0003E233C938FBF08952730A9F02830C9F0E3
:10020000243049F7809180008F7D03C08091800069
:100210008F7780938000DFCF84B58F7784BDDBCF6D
:1002200084B58F7DFBCF8091B0008F778093B00035
:10023000D2CF8091B0008F7DF9CF3E2BDACF8E5098
:10024000806480937C0080917A00806480937A003F
:1002500080917A0086FDFCCF8091780090917900A2
:100260000895089590E080E00895FC010190002039
:10027000E9F73197AF01481B590BBC0183E591E0C9
:100280000C94A6008F929F92AF92BF920F931F93F0
:10029000CF93DF93CDB7DEB7A1970FB6F894DEBF4B
:1002A0000FBECDBF19A2423008F44AE08E010F5DA7
:1002B0001F4F842E912CB12CA12CA50194010E94DA
:1002C0004608E62FB901CA01EA30F4F4E05DD8012E
:1002D000EE938D01232B242B252B79F790E080E0E2
:1002E000109719F0CD010E943501A1960FB6F89430
:1002F000DEBF0FBECDBFDF91CF911F910F91BF9099
:10030000AF909F908F900895E95CE1CFCF93DF93FA
:10031000EC0160E08E810E94D30061E08E810E943A
:10032000D30060E08E810E94D3008BE891E00197BA
:10033000F1F7DF91CF910895CF92DF92EF92FF9284
:100340000F931F93CF93DF936C017C0187E0E80E3E
:10035000F11CD0E0C0E0062F10E0B8010C2E02C066
:10036000759567950A94E2F76170F70181917F01B5
:100370000E94D3002196C430D10579F7C601DF91E0
:10038000CF911F910F91FF90EF90DF90CF900C9441
:100390008601CF92DF92EF92FF920F931F93CF933C
:1003A000DF93EC01F62E642F8C810E94D3008D81A7
:1003B0008F3F19F060E00E94D3000F2D10E08F8571
:1003C00084FF25C06E0187E0C80ED11CF12CE12C02
:1003D000B8010E2C02C0759567950A94E2F761701A
:1003E000F60181916F010E94D300FFEFEF1AFF0A1F
:1003F00088E0E816F10461F7CE01DF91CF911F91FB
:100400000F91FF90EF90DF90CF900C948601B80190
:1004100084E0759567958A95E1F7CE010E949C016D
:100420006F2DCE01DF91CF911F910F91FF90EF9033
:10043000DF90CF900C949C0140E0682F83E591E021
:100440000C94C901CF93DF93823029F4909162011B
:10045000986090936201809366011092670180E436
:100460008093680180E18093690180E580936A014F
:10047000809157010E948700809158018F3F11F0B1
:100480000E948700809159010E948700C3E5D1E056
:100490009E01235531408091620184FD0AC084E0B1
:1004A00090E02196281739073CF48E810E9487003E
:1004B000EFCF88E090E0F5CF8BE39DE00197F1F777
:1004C00060E0809157010E94D30060E08091590163
:1004D0000E94D300809158018F3F19F060E00E9484
:1004E000D3008091620184FD39C063E083E591E02F
:1004F0000E949C01CBE4D6E4CE010197F1F763E0C2
:1005000083E591E00E949C012197F1F763E083E588
:1005100091E00E949C0183E592E00197F1F762E08F
:1005200083E591E00E949C018091620180620E94BB
:100530001C0284E0809363018CE00E941C0281E035
:100540000E941C028BE39FE10197F1F782E0809308
:10055000640186E0DF91CF910C941C0280620E94BE
:100560001C028BE496E40197F1F7809162018062AE
:100570000E941C0283E592E00197F1F780916201ED
:1005800080620E941C02D0CF90916601691710F022
:100590006FEF690FE62FF0E0ED5AFE4F9489890F57
:1005A00080680C941C0241E00E94C90181E090E047
:1005B00008954F925F926F927F928F929F92AF9227
:1005C000BF92CF92DF92EF92FF920F931F93CF9340
:1005D0006B017C01742EAC019B010E9441088823B1
:1005E00099F088E191E0CF911F910F91FF90EF90EA
:1005F000DF90CF90BF90AF909F908F907F906F9043
:100600005F904F900C94350146015701E894B7F87C
:100610002FEF3FEF4FE75FE7C501B4010E944108AC
:1006200081110DC02FEF3FEF4FE75FE7C501B40128
:100630000E94770618161CF48CE191E0D4CF2FEFBE
:100640003FEF4FE75FE4C701B6010E94CF071816DE
:100650001CF480E291E0C7CF2FEF3FEF4FE75FEC54
:10066000C701B6010E94770687FDF3CF20E030E096
:10067000A901C701B6010E94770610E000E087FFDC
:100680000CC041E06DE283E591E00E94C901F7FAF8
:10069000F094F7F8F09401E010E0C0E060E070E062
:1006A00080E09FE37C1641F020E030E040E251E43E
:1006B0000E947C06CF5FF6CFA70196010E940B0631
:1006C0004B015C010E94EE062B013C014AE00E94B6
:1006D0004201080F191FCC23C9F1C301B2010E94C6
:1006E0001D079B01AC01C501B4010E940A064B0124
:1006F0005C0141E06EE283E591E00E94C9010F5F79
:100700001F4FC15018F120E030E040E251E4C50134
:10071000B4010E94D4072B013C010E94EE064B015C
:10072000B12CA12C4AE0C501B4010E944201080F7E
:10073000191FC501B4010E941D079B01AC01C30133
:10074000B2010E940A064B015C01DBCFC801CF91C8
:100750001F910F91FF90EF90DF90CF90BF90AF90DF
:100760009F908F907F906F905F904F9008951F9211
:100770000F920FB60F9211242F933F938F939F9355
:10078000AF93BF9380913B0190913C01A0913D01BB
:10079000B0913E0130913A0123E0230F2D3758F5F7
:1007A0000196A11DB11D20933A0180933B019093C6
:1007B0003C01A0933D01B0933E01809136019091A0
:1007C0003701A0913801B09139010196A11DB11DE9
:1007D0008093360190933701A0933801B09339018B
:1007E000BF91AF919F918F913F912F910F900FBE2D
:1007F0000F901F90189526E8230F0296A11DB11D9A
:10080000D2CFCF93DF93CDB7DEB728970FB6F8944A
:10081000DEBF0FBECDBF789484B5826084BD84B541
:10082000816084BD85B5826085BD85B5816085BDEB
:1008300080916E00816080936E00109281008091A3
:10084000810082608093810080918100816080932B
:100850008100809180008160809380008091B10050
:1008600084608093B1008091B00081608093B0007B
:1008700080917A00846080937A0080917A0082600F
:1008800080937A0080917A00816080937A008091D1
:100890007A00806880937A001092C1008DE00E94F7
:1008A000870082E00E94220260E080E00E94C40291
:1008B00084E291E00E94350160E087E00E94C4027A
:1008C00087E291E00E94350160E089E00E94C40265
:1008D00089E291E00E94350160E08FE00E94C4024D
:1008E0008CE291E00E94350161E080E00E94C40248
:1008F0008EE291E00E94350161E088E00E94C4022E
:1009000081E391E00E94350161E08AE00E94C40227
:1009100083E391E00E94350161E08DE00E94D30005
:100920008EE00E941F01BC01990F880B990B0E9459
:100930001F0720E030E040EA50E40E94D40720E0A6
:1009400030E048E252E40E94D40720E030EC4FE768
:1009500054E40E947C066B017C01C0924F01D0924E
:100960005001E0925101F09252018FE00E941F016C
:10097000BC01990F880B990B0E941F072AE038E2EF
:1009800040EA5BE30E94D40720914B0130914C0177
:1009900040914D0150914E010E940A0626EA3BE922
:1009A00044E45CE30E940B062DEC3CEC4CEC5DE374
:1009B0000E947C062B013C01409247015092480165
:1009C0006092490170924A01AC019B01C701B601D6
:1009D0000E94D40769837A838B839C83609343014D
:1009E0007093440180934501909346012091080142
:1009F0003091090140910A0150910B01C701B601E4
:100A00000E940A066D837E838F83988720913F0121
:100A100030914001409141015091420169817A81B8
:100A20008B819C810E940A0620E030E0A9010E948F
:100A3000CF0718160CF095C020E030E0A9016D81B9
:100A40007E818F8198850E94CF07181664F580906B
:100A5000000190900101A0900201B090030120914B
:100A60000401309105014091060150910701C30135
:100A7000B2010E940A0620E030E0A9010E94CF07DF
:100A80002AE037ED43E25CE318160CF07AC0C501AA
:100A9000B4010E940B0660930001709301018093E2
:100AA00002019093030189819A81AB81BC8180937B
:100AB0003F0190934001A0934101B0934201C09245
:100AC0000801D0920901E0920A01F0920B014092D4
:100AD000040150920501609206017092070160E0E6
:100AE00082E00E94C40241E0C701B6010E94D9021F
:100AF00060E08BE00E94C402609147017091480160
:100B00008091490190914A0142E00E94D90261E03E
:100B100082E00E94C402609143017091440180917F
:100B200045019091460141E00E94D90261E08CE0CC
:100B30000E94C40260910001709101018091020144
:100B40009091030142E00E94D90260E08DE00E9492
:100B5000D300A0E0B0E0AB2B09F4DECE0E94000091
:100B6000DBCE8090000190900101A0900201B09036
:100B7000030120E030E0A9016D817E818F8198859D
:100B80007DCFC501B4010E940A0685CF80E090E0C8
:100B9000A0E2B0E480934B0190934C01A0934D01EF
:100BA000B0934E012091040130910501409106015E
:100BB00050910701609108017091090180910A012B
:100BC00090910B010E94D40760933F017093400104
:100BD0008093410190934201E3E5F1E01382128298
:100BE00080E191E0918380838CE084838FEF858323
:100BF0008BE0868385E0878384E0808783E081873C
:100C000082E082871386148615861686178681E011
:100C10000C9422025058BB27AA270E9422060C944B
:100C200095070E94870738F00E948E0720F039F45C
:100C30009F3F19F426F40C9484070EF4E095E7FB2B
:100C40000C947E07E92F0E94A60758F3BA17620793
:100C500073078407950720F079F4A6F50C94C8076C
:100C60000EF4E0950B2EBA2FA02D0B01B9019001C7
:100C70000C01CA01A0011124FF27591B99F0593F0B
:100C800050F4503E68F11A16F040A22F232F342F53
:100C90004427585FF3CF469537952795A795F040A1
:100CA0005395C9F77EF41F16BA0B620B730B840BB6
:100CB000BAF09150A1F0FF0FBB1F661F771F881F6E
:100CC000C2F70EC0BA0F621F731F841F48F48795C6
:100CD00077956795B795F7959E3F08F0B0CF9395B8
:100CE000880F08F09927EE0F9795879508950E9431
:100CF0005A0708F481E008950E9490060C94950725
:100D00000E948E0758F00E94870740F029F45F3F49
:100D100029F00C947E0751110C94C9070C94840798
:100D20000E94A60768F39923B1F3552391F3951B0D
:100D3000550BBB27AA2762177307840738F09F5FFC
:100D40005F4F220F331F441FAA1FA9F335D00E2E69
:100D50003AF0E0E832D091505040E695001CCAF7D6
:100D60002BD0FE2F29D0660F771F881FBB1F261799
:100D700037074807AB07B0E809F0BB0B802DBF0170
:100D8000FF2793585F4F3AF09E3F510578F00C943F
:100D90007E070C94C9075F3FE4F3983ED4F3869531
:100DA00077956795B795F7959F5FC9F7880F911D60
:100DB0009695879597F90895E1E0660F771F881F4C
:100DC000BB1F621773078407BA0720F0621B730BFF
:100DD000840BBA0BEE1F88F7E09508950E94AE07CA
:100DE00088F09F5798F0B92F9927B751B0F0E1F0EC
:100DF000660F771F881F991F1AF0BA95C9F714C09C
:100E0000B13091F00E94C807B1E008950C94C80772
:100E1000672F782F8827B85F39F0B93FCCF38695D4
:100E200077956795B395D9F73EF490958095709531
:100E300061957F4F8F4F9F4F0895E89409C097FBAE
:100E40003EF490958095709561957F4F8F4F9F4FA1
:100E50009923A9F0F92F96E9BB279395F6958795E5
:100E600077956795B795F111F8CFFAF4BB0F11F4A8
:100E700060FF1BC06F5F7F4F8F4F9F4F16C088234F
:100E800011F096E911C0772321F09EE8872F762F85
:100E900005C0662371F096E8862F70E060E02AF0C6
:100EA0009A95660F771F881FDAF7880F96958795B2
:100EB00097F90895990F0008550FAA0BE0E8FEEF87
:100EC00016161706E807F907C0F012161306E4070E
:100ED000F50798F0621B730B840B950B39F40A2607
:100EE00061F0232B242B252B21F408950A2609F4E5
:100EF000A140A6958FEF811D811D089597F99F67E9
:100F000080E870E060E008959FEF80EC0895002491
:100F10000A941616170618060906089500240A945E
:100F200012161306140605060895092E0394000CE4
:100F300011F4882352F0BB0F40F4BF2B11F460FF73
:100F400004C06F5F7F4F8F4F9F4F089557FD90589C
:100F5000440F551F59F05F3F71F04795880F97FB7D
:100F6000991F61F09F3F79F0879508951216130637
:100F70001406551FF2CF4695F1DF08C01616170666
:100F80001806991FF1CF869571056105089408959B
:100F9000E894BB2766277727CB0197F908950E942D
:100FA0005A0708F48FEF08950E94E7070C949507FD
:100FB0000E94870738F00E948E0720F0952311F0D9
:100FC0000C947E070C94840711240C94C9070E948A
:100FD000A60770F3959FC1F3950F50E0551F629FD0
:100FE000F001729FBB27F00DB11D639FAA27F00D82
:100FF000B11DAA1F649F6627B00DA11D661F829FA9
:101000002227B00DA11D621F739FB00DA11D621F8D
:10101000839FA00D611D221F749F3327A00D611DAA
:10102000231F849F600D211D822F762F6A2F11248C
:101030009F5750409AF0F1F088234AF0EE0FFF1FBF
:10104000BB1F661F771F881F91505040A9F79E3F16
:10105000510580F00C947E070C94C9075F3FE4F3C0
:10106000983ED4F3869577956795B795F795E7956C
:101070009F5FC1F7FE2B880F911D9695879597F975
:1010800008950E945A07880B990B0895A1E21A2E21
:10109000AA1BBB1BFD010DC0AA1FBB1FEE1FFF1F1C
:1010A000A217B307E407F50720F0A21BB30BE40B6C
:1010B000F50B661F771F881F991F1A9469F76095B3
:1010C0007095809590959B01AC01BD01CF0108956D
:1010D000EE0FFF1F0590F491E02D0994F894FFCFD7
:1010E0007B142E3E0000803F0000803F0000000087
:1010F000D302A600320131016E616E00696E660096
:101100006F766600563D005600493D004100503D57
:06111000005700443D0001
:00000001FF
