:100000000C945D000C9485000C9485000C94850084
:100010000C9485000C9485000C9485000C9485004C
:100020000C9485000C9485000C9485000C9485003C
:100030000C9485000C9485000C9485000C9485002C
:100040000C94E1000C9485000C9485000C948500C0
:100050000C9485000C9485000C9485000C9485000C
:100060000C9485000C9485000000000024002700FB
:100070002A0000000000250028002B0004040404CE
:100080000404040402020202020203030303030342
:10009000010204081020408001020408102001021F
:1000A00004081020000000080002010000030407FB
:1000B0000000000000000000630211241FBECFEF0B
:1000C000D8E0DEBFCDBF11E0A0E0B1E0E4E5F9E0AB
:1000D00002C005900D92AC30B107D9F721E0ACE039
:1000E000B1E001C01D92AD31B207E1F710E0CDE5FE
:1000F000D0E004C02197FE010E94A204CC35D107B4
:10010000C9F70E942B010C94A8040C940000E1EBA9
:10011000F0E02491EDE9F0E09491E9E8F0E0E49179
:10012000EE23C9F0222339F0233001F1A8F4213065
:1001300019F1223029F1F0E0EE0FFF1FEE58FF4FCA
:10014000A591B4912FB7F894EC91811126C09095A8
:100150009E239C932FBF08952730A9F02830C9F023
:10016000243049F7209180002F7D03C0209180002A
:100170002F7720938000DFCF24B52F7724BDDBCFEE
:1001800024B52F7DFBCF2091B0002F772093B000B6
:10019000D2CF2091B0002F7DF9CF9E2BDACF8E5099
:1001A000806480937C0080917A00806480937A00E0
:1001B00080917A0086FDFCCF809178009091790043
:1001C00008951F920F920FB60F9211242F933F9311
:1001D0008F939F93AF93BF938091110190911201E0
:1001E000A0911301B09114013091100123E0230F6D
:1001F0002D3758F50196A11DB11D20931001809354
:10020000110190931201A0931301B09314018091F6
:100210000C0190910D01A0910E01B0910F0101967A
:10022000A11DB11D80930C0190930D01A0930E01AF
:10023000B0930F01BF91AF919F918F913F912F91FB
:100240000F900FBE0F901F90189526E8230F02966F
:10025000A11DB11DD2CF789484B5826084BD84B5D0
:10026000816084BD85B5826085BD85B5816085BDB1
:1002700080916E00816080936E0010928100809169
:1002800081008260809381008091810081608093F1
:100290008100809180008160809380008091B10016
:1002A00084608093B1008091B00081608093B00041
:1002B00080917A00846080937A0080917A008260D5
:1002C00080937A0080917A00816080937A00809197
:1002D0007A00806880937A001092C100EDE9F0E026
:1002E0002491E9E8F0E08491882399F090E0880F68
:1002F000991FFC01E859FF4FA591B491FC01EE58FC
:10030000FF4F859194918FB7F894EC91E22BEC9389
:100310008FBFC0E0D0E081E00E9487008EE00E94A5
:10032000CF00BC01990F880B990B0E94850320E038
:1003300030E040EA50E40E94350420E030E048E23A
:1003400052E40E94350420E030EC4FE754E40E9470
:10035000E2026B017C01C0921901D0921A01E09275
:100360001B01F0921C018FE00E94CF00BC01990F8D
:10037000880B990B0E9485032AE038E240EA5BE390
:100380000E9435042091150130911601409117010A
:10039000509118010E94700226EA3BE944E45CE3B4
:1003A0000E9471022DEC3CEC4CEC5DE30E94E202F9
:1003B0002B013C018090000190900101A09002016E
:1003C000B0900301209108013091090140910A0188
:1003D00050910B01C701B6010E94700220E030E08D
:1003E000A9010E94DD0227E137EB41ED58E387FFC9
:1003F00065C0C501B4010E94700260930001709352
:1004000001018093020190930301C0920801D092F0
:100410000901E0920A01F0920B014092040150920E
:1004200005016092060170920701C0900001D09012
:100430000101E0900201F090030121E73DE34AE071
:100440005FE3C701B6010E9471022DE33AEA46E27A
:1004500054E40E9435040E9454036230710548F050
:10046000660F771F660F771F65507109CB010197E3
:10047000F1F780E00E948700A70196016EE175E820
:100480008BEE9EE30E9470022DE33AEA46E254E4CA
:100490000E9435040E9454036230710548F0660FD3
:1004A000771F660F771F65507109CB010197F1F730
:1004B000209709F430CF0E9400002DCFC501B40170
:1004C0000E9471029ACF80E090E0A0E2B0E48093B5
:1004D000150190931601A0931701B0931801089588
:1004E0005058BB27AA270E9488020C94FB030E9445
:1004F000ED0338F00E94F40320F039F49F3F19F423
:1005000026F40C94EA030EF4E095E7FB0C94E40364
:10051000E92F0E940C0458F3BA1762077307840787
:10052000950720F079F4A6F50C942E040EF4E095CE
:100530000B2EBA2FA02D0B01B90190010C01CA019D
:10054000A0011124FF27591B99F0593F50F4503E48
:1005500068F11A16F040A22F232F342F4427585F3A
:10056000F3CF469537952795A795F0405395C9F752
:100570007EF41F16BA0B620B730B840BBAF091500A
:10058000A1F0FF0FBB1F661F771F881FC2F70EC0A9
:10059000BA0F621F731F841F48F48795779567957C
:1005A000B795F7959E3F08F0B0CF9395880F08F068
:1005B0009927EE0F9795879508950E94C00308F438
:1005C00081E008950E94F6020C94FB030E94F4035C
:1005D00058F00E94ED0340F029F45F3F29F00C949D
:1005E000E40351110C942F040C94EA030E940C04B0
:1005F00068F39923B1F3552391F3951B550BBB2752
:10060000AA2762177307840738F09F5F5F4F220F96
:10061000331F441FAA1FA9F335D00E2E3AF0E0E88D
:1006200032D091505040E695001CCAF72BD0FE2FD7
:1006300029D0660F771F881FBB1F2617370748076B
:10064000AB07B0E809F0BB0B802DBF01FF27935823
:100650005F4F3AF09E3F510578F00C94E4030C9400
:100660002F045F3FE4F3983ED4F386957795679522
:10067000B795F7959F5FC9F7880F911D9695879558
:1006800097F90895E1E0660F771F881FBB1F621777
:1006900073078407BA0720F0621B730B840BBA0B35
:1006A000EE1F88F7E09508950E94140488F09F5784
:1006B00098F0B92F9927B751B0F0E1F0660F771F86
:1006C000881F991F1AF0BA95C9F714C0B13091F07C
:1006D0000E942E04B1E008950C942E04672F782F09
:1006E0008827B85F39F0B93FCCF386957795679541
:1006F000B395D9F73EF490958095709561957F4FAD
:100700008F4F9F4F0895E89409C097FB3EF4909552
:100710008095709561957F4F8F4F9F4F9923A9F0DA
:10072000F92F96E9BB279395F69587957795679569
:10073000B795F111F8CFFAF4BB0F11F460FF1BC0AD
:100740006F5F7F4F8F4F9F4F16C0882311F096E940
:1007500011C0772321F09EE8872F762F05C06623EE
:1007600071F096E8862F70E060E02AF09A95660FA7
:10077000771F881FDAF7880F9695879597F9089560
:10078000990F0008550FAA0BE0E8FEEF16161706A2
:10079000E807F907C0F012161306E407F50798F00A
:1007A000621B730B840B950B39F40A2661F0232B23
:1007B000242B252B21F408950A2609F4A140A6959F
:1007C0008FEF811D811D089597F99F6780E870E084
:1007D00060E008959FEF80EC089500240A941616B7
:1007E000170618060906089500240A94121613061F
:1007F000140605060895092E0394000C11F48823AD
:1008000052F0BB0F40F4BF2B11F460FF04C06F5FC8
:100810007F4F8F4F9F4F089557FD9058440F551F9E
:1008200059F05F3F71F04795880F97FB991F61F072
:100830009F3F79F087950895121613061406551FE9
:10084000F2CF4695F1DF08C0161617061806991F55
:10085000F1CF86957105610508940895E894BB274A
:1008600066277727CB0197F908950E9448040C94D6
:10087000FB030E94ED0338F00E94F40320F095235F
:1008800011F00C94E4030C94EA0311240C942F044B
:100890000E940C0470F3959FC1F3950F50E0551F13
:1008A000629FF001729FBB27F00DB11D639FAA27C5
:1008B000F00DB11DAA1F649F6627B00DA11D661F14
:1008C000829F2227B00DA11D621F739FB00DA11D35
:1008D000621F839FA00D611D221F749F3327A00DEF
:1008E000611D231F849F600D211D822F762F6A2F8B
:1008F00011249F5750409AF0F1F088234AF0EE0FF0
:10090000FF1FBB1F661F771F881F91505040A9F71C
:100910009E3F510580F00C94E4030C942F045F3F3C
:10092000E4F3983ED4F3869577956795B795F79558
:10093000E7959F5FC1F7FE2B880F911D96958795D0
:1009400097F90895EE0FFF1F0590F491E02D09949B
:04095000F894FFCF49
:0C095400C976BE3D0000803F0000803FDF
:00000001FF
